:020000040800F2
:1000000000500020096D0008516D0008516D000876
:10001000516D0008516D0008516D0008000000008E
:10002000000000000000000000000000516D00080A
:10003000516D000800000000516D00084360000889
:10004000516D0008516D0008516D0008516D000898
:10005000516D0008516D0008B96B0008BF6B0008B6
:10006000C56B0008CB6B0008D16B0008516D000810
:10007000516D0008516D0008516D0008516D000868
:10008000516D0008516D0008516D0008516D000858
:10009000F9850008516D0008516D0008D76B000804
:1000A000516D0008B1720008516D0008C57200085A
:1000B000C9720008DD720008F17200080D1A00080C
:1000C000191A0008251A0008311A0008516D000895
:1000D000516D0008D16A0008E96A0008016B000848
:1000E000ED6B00085565000805860008000000005B
:1000F0000000000000000000000000000000000000
:0C01000000000000000000005FF808F1A3
:10010C00034613F8012B002AFBD1181A013870474B
:10011C0081F0004102E000BF83F0004330B54FEAAC
:10012C0041044FEA430594EA050F08BF90EA020F19
:10013C001FBF54EA000C55EA020C7FEA645C7FEAAC
:10014C00655C00F0E2804FEA5454D4EB5555B8BFCF
:10015C006D420CDD2C4480EA020281EA030382EA40
:10016C00000083EA010180EA020281EA0303362DD2
:10017C0088BF30BD11F0004F4FEA01314FF4801CA5
:10018C004CEA113102D0404261EB410113F0004FB7
:10019C004FEA03334CEA133302D0524263EB43036E
:1001AC0094EA050F00F0A780A4F10104D5F1200E0C
:1001BC000DDB02FA0EFC22FA05F2801841F1000167
:1001CC0003FA0EF2801843FA05F359410EE0A5F13B
:1001DC0020050EF1200E012A03FA0EFC28BF4CF06C
:1001EC00020C43FA05F3C01851EBE37101F0004522
:1001FC0007D54FF0000EDCF1000C7EEB00006EEB2F
:10020C000101B1F5801F1BD3B1F5001F0CD34908B8
:10021C005FEA30004FEA3C0C04F101044FEA44520F
:10022C0012F5800F80F09A80BCF1004F08BF5FEA96
:10023C00500C50F1000041EB045141EA050130BD76
:10024C005FEA4C0C404141EB0101013C28BFB1F588
:10025C00801FE9D291F0000F04BF01460020B1FAD3
:10026C0081F308BF2033A3F10B03B3F120020CDAA6
:10027C000C3208DD02F1140CC2F10C0201FA0CF084
:10028C0021FA02F10CE002F11402D8BFC2F1200CE9
:10029C0001FA02F120FA0CFCDCBF41EA0C0190409F
:1002AC00E41AA2BF01EB0451294330BD6FEA0404E8
:1002BC001F3C1CDA0C340EDC04F11404C4F12002D3
:1002CC0020FA04F001FA02F340EA030021FA04F3E5
:1002DC0045EA030130BDC4F10C04C4F1200220FA3C
:1002EC0002F001FA04F340EA0300294630BD21FA7A
:1002FC0004F0294630BD94F0000F83F4801306BF40
:10030C0081F480110134013D4EE77FEA645C18BF33
:10031C007FEA655C29D094EA050F08BF90EA020FCA
:10032C0005D054EA000C04BF1946104630BD91EAC2
:10033C00030F1EBF0021002030BD5FEA545C05D1C5
:10034C004000494128BF41F0004130BD14F5800404
:10035C003CBF01F5801130BD01F0004545F0FE4178
:10036C0041F470014FF0000030BD7FEA645C1ABFAD
:10037C00194610467FEA655C1CBF0B46024650EAE4
:10038C00013406BF52EA033591EA030F41F4002110
:10039C0030BD00BF90F0000F04BF0021704730B596
:1003AC004FF4806404F132044FF000054FF000016B
:1003BC0050E700BF90F0000F04BF0021704730B52C
:1003CC004FF4806404F1320410F0004548BF404201
:1003DC004FF000013EE700BF42004FEAE2014FEA56
:1003EC0031014FEA02701FBF12F07F4393F07F4F31
:1003FC0081F06051704732F07F4208BF704793F034
:10040C007F4F04BF41F40021704730B54FF4607446
:10041C0001F0004521F000411CE700BF50EA010249
:10042C0008BF704730B54FF000050AE050EA0102F2
:10043C0008BF704730B511F0004502D5404261EB62
:10044C0041014FF4806404F132045FEA915C3FF4A3
:10045C00D8AE4FF003025FEADC0C18BF03325FEA40
:10046C00DC0C18BF033202EBDC02C2F1200300FAF1
:10047C0003FC20FA02F001FA03FE40EA0E0021FA16
:10048C0002F11444BDE600BF70B54FF0FF0C4CF404
:10049C00E06C1CEA11541DBF1CEA135594EA0C0FB6
:1004AC0095EA0C0F00F0DEF82C4481EA030621EAF1
:1004BC004C5123EA4C5350EA013518BF52EA03352C
:1004CC0041F4801143F4801338D0A0FB02CE4FF0DE
:1004DC000005E1FB02E506F00042E0FB03E54FF00E
:1004EC000006E1FB03569CF0000F18BF4EF0010E06
:1004FC00A4F1FF04B6F5007F64F5407404D25FEA02
:10050C004E0E6D4146EB060642EAC62141EA5551B4
:10051C004FEAC52040EA5E504FEACE2EB4F1FD0CF6
:10052C0088BFBCF5E06F1ED8BEF1004F08BF5FEA74
:10053C00500E50F1000041EB045170BD06F0004626
:10054C0046EA010140EA020081EA0301B4EB5C04D3
:10055C00C2BFD4EB0C0541EA045170BD41F48011CB
:10056C004FF0000E013C00F3AB8014F1360FDEBFF0
:10057C00002001F0004170BDC4F10004203C35DACC
:10058C000C341BDC04F11404C4F1200500FA05F34F
:10059C0020FA04F001FA05F240EA020001F00042F0
:1005AC0021F0004110EBD37021FA04F642EB060166
:1005BC005EEA430E08BF20EAD37070BDC4F10C0490
:1005CC00C4F1200500FA04F320FA05F001FA04F254
:1005DC0040EA020001F0004110EBD37041F1000140
:1005EC005EEA430E08BF20EAD37070BDC4F120054B
:1005FC0000FA05F24EEA020E20FA04F301FA05F2B3
:10060C0043EA020321FA04F001F0004121FA04F25A
:10061C0020EA020000EBD3705EEA430E08BF20EA2A
:10062C00D37070BD94F0000F0FD101F00046400064
:10063C0041EB010111F4801F08BF013CF7D041EAE6
:10064C00060195F0000F18BF704703F000465200EA
:10065C0043EB030313F4801F08BF013DF7D043EABB
:10066C000603704794EA0C0F0CEA135518BF95EA71
:10067C000C0F0CD050EA410618BF52EA4306D1D1F8
:10068C0081EA030101F000414FF0000070BD50EA17
:10069C00410606BF1046194652EA430619D094EAA1
:1006AC000C0F02D150EA013613D195EA0C0F05D18B
:1006BC0052EA03361CBF104619460AD181EA0301DF
:1006CC0001F0004141F0FE4141F470014FF0000097
:1006DC0070BD41F0FE4141F4780170BD70B54FF032
:1006EC00FF0C4CF4E06C1CEA11541DBF1CEA1355B2
:1006FC0094EA0C0F95EA0C0F00F0A7F8A4EB050494
:10070C0081EA030E52EA03354FEA013100F088808A
:10071C004FEA03334FF0805545EA131343EA126353
:10072C004FEA022245EA111545EA10654FEA002608
:10073C000EF000419D4208BF964244F1FD0404F5C1
:10074C00407402D25B084FEA3202B61A65EB03051D
:10075C005B084FEA32024FF480104FF4002CB6EBDA
:10076C00020E75EB030E22BFB61A754640EA0C005A
:10077C005B084FEA3202B6EB020E75EB030E22BF9A
:10078C00B61A754640EA5C005B084FEA3202B6EBDB
:10079C00020E75EB030E22BFB61A754640EA9C009A
:1007AC005B084FEA3202B6EB020E75EB030E22BF6A
:1007BC00B61A754640EADC0055EA060E18D04FEA28
:1007CC00051545EA16754FEA06164FEAC30343EAC8
:1007DC0052734FEAC2025FEA1C1CC0D111F4801F95
:1007EC000BD141EA00014FF000004FF0004CB6E78E
:1007FC0011F4801F04BF01430020B4F1FD0C88BF2D
:10080C00BCF5E06F3FF6AFAEB5EB030C04BFB6EB37
:10081C00020C5FEA500C50F1000041EB045170BD2A
:10082C000EF0004E4EEA113114EB5C04C2BFD4EB57
:10083C000C0541EA045170BD41F480114FF0000EDB
:10084C00013C90E645EA060E8DE60CEA135594EA57
:10085C000C0F08BF95EA0C0F3FF43BAF94EA0C0F5A
:10086C000AD150EA01347FF434AF95EA0C0F7FF4CF
:10087C0025AF104619462CE795EA0C0F06D152EA23
:10088C0003353FF4FDAE1046194622E750EA410607
:10089C0018BF52EA43067FF4C5AE50EA41047FF418
:1008AC000DAF52EA43057FF4EBAE12E74FF0FF3C7D
:1008BC0006E000BF4FF0010C02E000BF4FF0010C4E
:1008CC004DF804CD4FEA410C7FEA6C5C4FEA430CC7
:1008DC0018BF7FEA6C5C1BD001B050EA410C0CBF16
:1008EC0052EA430C91EA030F02BF90EA020F002078
:1008FC00704710F1000F91EA030F58BF994208BFDF
:10090C0090422CBFD8176FEAE37040F0010070479B
:10091C004FEA410C7FEA6C5C02D150EA013C07D1F2
:10092C004FEA430C7FEA6C5CD6D152EA033CD3D03D
:10093C005DF8040B704700BF8446104662468C4637
:10094C001946634600E000BF01B5FFF7B7FF00286A
:10095C0048BF10F1000F01BD4DF808EDFFF7F4FF93
:10096C000CBF012000205DF808FB00BF4DF808ED1E
:10097C00FFF7EAFF34BF012000205DF808FB00BF41
:10098C004DF808EDFFF7E0FF94BF012000205DF863
:10099C0008FB00BF4DF808EDFFF7CEFF94BF012018
:1009AC0000205DF808FB00BF4DF808EDFFF7C4FF11
:1009BC0034BF012000205DF808FB00BF4FEA410C5A
:1009CC007FEA6C5C02D150EA013C0AD14FEA430C3D
:1009DC007FEA6C5C02D152EA033C02D14FF000007A
:1009EC0070474FF0010070474FEA410212F50012B8
:1009FC0015D211D56FF47873B3EB625212D94FEA5A
:100A0C00C12343F0004343EA505311F0004F23FA43
:100A1C0002F018BF404270474FF00000704750EA98
:100A2C00013005D111F0004008BF6FF00040704755
:100A3C004FF00000704700BF4A0011D212F50012AF
:100A4C0011D20DD56FF47873B3EB62520ED44FEA1A
:100A5C00C12343F0004343EA505323FA02F070479A
:100A6C004FF00000704750EA013002D14FF0FF30D8
:100A7C0070474FF0000070474FEA4102B2F1E0437B
:100A8C0024BFB3F5001CDCF1FE5C0DD901F0004C69
:100A9C004FEAC0024CEA5070B2F1004F40EB8300B9
:100AAC0008BF20F00100704711F0804F21D113F1E5
:100ABC003872BCBF01F00040704741F480114FEA1E
:100ACC005252C2F11802C2F1200C10FA0CF320FAA7
:100ADC0002F018BF40F001004FEAC1234FEAD323C4
:100AEC0003FA0CFC40EA0C0023FA02F34FEA43032E
:100AFC00CCE77FEA625307D150EA01331EBF4FF0B7
:100B0C00FE4040F44000704701F0004040F0FE40D1
:100B1C0040F40000704700BF80F0004002E000BFCE
:100B2C0081F0004142001FBF5FEA410392EA030FCC
:100B3C007FEA226C7FEA236C6AD04FEA1262D2EB16
:100B4C001363C1BFD218414048404140B8BF5B421B
:100B5C00192B88BF704710F0004F40F4000020F0B4
:100B6C007F4018BF404211F0004F41F4000121F0CA
:100B7C007F4118BF494292EA030F3FD0A2F1010214
:100B8C0041FA03FC10EB0C00C3F1200301FA03F152
:100B9C0000F0004302D5494260EB4000B0F5000F75
:100BAC0013D3B0F1807F06D340084FEA310102F134
:100BBC000102FE2A51D2B1F1004F40EBC25008BFE6
:100BCC0020F0010040EA03007047490040EB0000B0
:100BDC00013A28BFB0F5000FEDD2B0FA80FCACF1B1
:100BEC00080CB2EB0C0200FA0CF0AABF00EBC250DE
:100BFC0052421843BCBFD0401843704792F0000FCC
:100C0C0081F4000106BF80F400000132013BB5E71E
:100C1C004FEA41037FEA226C18BF7FEA236C21D094
:100C2C0092EA030F04D092F0000F08BF08467047F9
:100C3C0090EA010F1CBF0020704712F07F4F04D1C7
:100C4C00400028BF40F00040704712F100723CBFDA
:100C5C0000F50000704700F0004343F0FE4040F404
:100C6C00000070477FEA226216BF08467FEA2363C2
:100C7C000146420206BF5FEA412390EA010F40F4AD
:100C8C00800070474FF0000304E000BF10F00043F9
:100C9C0048BF40425FEA000C08BF704743F09643E0
:100CAC0001464FF000001CE050EA010208BF7047FB
:100CBC004FF000030AE000BF50EA010208BF704782
:100CCC0011F0004302D5404261EB41015FEA010C97
:100CDC0002BF84460146002043F0B64308BFA3F18F
:100CEC008053A3F50003BCFA8CF2083AA3EBC25371
:100CFC0010DB01FA02FC634400FA02FCC2F1200290
:100D0C00BCF1004F20FA02F243EB020008BF20F0C6
:100D1C000100704702F1200201FA02FCC2F120022C
:100D2C0050EA4C0021FA02F243EB020008BF20EA21
:100D3C00DC7070474FF0FF0C1CEAD0521EBF1CEA4F
:100D4C00D15392EA0C0F93EA0C0F6FD01A4480EA3D
:100D5C00010C400218BF5FEA41211ED04FF0006326
:100D6C0043EA501043EA5111A0FB01310CF0004052
:100D7C00B1F5000F3EBF490041EAD3715B0040EA78
:100D8C00010062F17F02FD2A1DD8B3F1004F40EB48
:100D9C00C25008BF20F00100704790F0000F0CF01B
:100DAC00004C08BF49024CEA502040EA51207F3ADF
:100DBC00C2BFD2F1FF0340EAC250704740F40000BA
:100DCC004FF00003013A5DDC12F1190FDCBF00F0AB
:100DDC0000407047C2F10002410021FA02F1C2F159
:100DEC00200200FA02FC5FEA310040F1000053EAF5
:100DFC004C0308BF20EADC70704792F0000F00F043
:100E0C00004C02BF400010F4000F013AF9D040EA48
:100E1C000C0093F0000F01F0004C02BF490011F4DC
:100E2C00000F013BF9D041EA0C018FE70CEAD153DA
:100E3C0092EA0C0F18BF93EA0C0F0AD030F0004C5A
:100E4C0018BF31F0004CD8D180EA010000F000400E
:100E5C00704790F0000F17BF90F0004F084691F0CC
:100E6C00000F91F0004F14D092EA0C0F01D1420206
:100E7C000FD193EA0C0F03D14B0218BF084608D1CF
:100E8C0080EA010000F0004040F0FE4040F4000019
:100E9C00704740F0FE4040F4400070474FF0FF0CAC
:100EAC001CEAD0521EBF1CEAD15392EA0C0F93EAF3
:100EBC000C0F69D0A2EB030280EA010C49024FEA45
:100ECC00402037D04FF0805343EA111143EA1013FE
:100EDC000CF000408B4238BF5B0042F17D024FF4B6
:100EEC00000C8B4224BF5B1A40EA0C00B3EB510F91
:100EFC0024BFA3EB510340EA5C00B3EB910F24BF7A
:100F0C00A3EB910340EA9C00B3EBD10F24BFA3EBFE
:100F1C00D10340EADC001B0118BF5FEA1C1CE0D1C6
:100F2C00FD2A3FF650AF8B4240EBC25008BF20F079
:100F3C00010070470CF0004C4CEA50207F32C2BFCD
:100F4C00D2F1FF0340EAC250704740F400004FF06A
:100F5C000003013A37E792F0000F00F0004C02BF9B
:100F6C00400010F4000F013AF9D040EA0C0093F065
:100F7C00000F01F0004C02BF490011F4000F013BBF
:100F8C00F9D041EA0C0195E70CEAD15392EA0C0F27
:100F9C0008D142027FF47DAF93EA0C0F7FF470AF5F
:100FAC00084676E793EA0C0F04D14B023FF44CAFA2
:100FBC0008466EE730F0004C18BF31F0004CCAD137
:100FCC0030F000427FF45CAF31F000437FF43CAF73
:100FDC005FE700BF7BB972B90029BEBF00204FF09C
:100FEC00004106E008BF00281CBF6FF000414FF025
:100FFC00FF3000F03FB8ADF1080C6DE904CE0029CC
:10100C0009DB002B1ADB07F0E5FEDDF804E0DDE977
:10101C00022304B07047404261EB4101002B1BDB03
:10102C0007F0D8FEDDF804E0DDE9022304B040420D
:10103C0061EB4101524263EB43037047524263EB55
:10104C00430307F0C7FEDDF804E0DDE9022304B03A
:10105C00404261EB41017047524263EB430307F09E
:10106C00B9FEDDF804E0DDE9022304B0524263EB83
:10107C0043037047704700BF10B5054C237833B954
:10108C00044B13B10448AFF300800123237010BD4F
:10109C000802002000000000A490000808B5034BD3
:1010AC001BB103490348AFF3008008BD00000000EA
:1010BC000C020020A490000808B506224FF4E13180
:1010CC00044805F0C7FFBDE808407621024A0348F2
:1010DC0000F061BE240200207803002024030020CD
:1010EC0073B51D4C1D4E1E49204606F026F93046A0
:1010FC0000F074FEFFF770F9012502460B462046FE
:10110C00009506F01BFA1749204606F016F93046F2
:10111C0000F0C6FFFFF760F9009502460B4620462B
:10112C0006F00CFA1049204606F007F9304600F09C
:10113C009BFE0E49FFF7B2FEFFF74EF900950246F3
:10114C000B46204606F0FAF94FF47A7002B0BDE86F
:10115C00704005F089BE00BF24020020240300204B
:10116C00BC900008C7900008D29000080000C8424C
:10117C0008B5054800F05CFCBDE8084000220349B6
:10118C00034805F013BF00BF2403002000440040B7
:10119C0024020020014800F053BC00BF24030020AF
:1011AC00024B1878024B1B78C01A70471F040020A2
:1011BC001D040020074A084913780978994281BF19
:1011CC0006490968C85C01338CBF13704FF0FF30BF
:1011DC00704700BF1D0400201F04002030040020B5
:1011EC00054B064A1B7812789A4283BF044A126850
:1011FC00D05C4FF0FF3070471D0400201F0400200E
:10120C0030040020044B1B682BB1002203490A70E8
:10121C0003490A7018477047280400201E04002058
:10122C0020040020202838BF202038B5084D044663
:10123C000146286807F07AFD18B1064B28601C702F
:10124C0038BD2146BDE83840034805F083B900BFDE
:10125C00340400202D040020DD90000837B5164B17
:10126C0004461B788DF80710DBB1144D144A28780E
:10127C0012780130904201D9FFF7D4FF114B186856
:10128C0018B90123636003B030BD0F4A9DF80710F5
:10129C001378C154137801200133DBB213702B7017
:1012AC00F1E701220DF10701143000F09BFAB0FABE
:1012BC0080F04009E7E700BF1C0400202004002058
:1012CC002D040020340400201E040020044B186858
:1012DC0020B1044B00211A7807F07ABC704700BF8C
:1012EC00300400202C040020044B186820B1044B5F
:1012FC0000211A7807F06CBC704700BF3404002042
:10130C002D04002010B50024064B1C70064B1C70DD
:10131C00FFF7DCFF054B1C70054B1C70BDE8104043
:10132C00FFF7E2BF1D0400201F0400201E04002054
:10133C0020040020F8B5164B05461B780F461446C2
:10134C00EBB1144E144B30781B781044984201D9F1
:10135C00FFF768FF114B1B6823B901221C466A601A
:10136C002046F8BD0E4D224628783946184407F021
:10137C0021FC2B782344DBB22B703370F0E792B254
:10138C00143000F02FFA002818BF0024E8E700BF43
:10139C001C040020200400202D0400203404002014
:1013AC001E04002000214FF47A72C0E90112054A94
:1013BC000260054A9188A0F86C10D288A0F86E20C3
:1013CC00704700BF60910008CC950008F8B5002666
:1013DC000D4604461746174B1E70174B1E70FFF731
:1013EC0075FF164B1E70164B1E70FFF77DFF154BCD
:1013FC00A5F133021E706B0055425541DBB284F8E7
:10140C00A25004F1140523744FF4804228460E496F
:10141C0084F8A37000F024F994F8A2304BB9284654
:10142C000A4900F091FA2846BDE8F840084900F056
:10143C0084BAF8BD1D0400201F0400201E040020E7
:10144C00200400201C040020A086010011120008BA
:10145C00351500080A463321FFF7B8BF0122054BAA
:10146C0091401A70044B054A197000231370044AFA
:10147C00137070471C040020380400201E04002048
:10148C002004002038B5E9B94FF42A03436490F8DE
:10149C00A230012B19D10E4D0E4A0F492B78126830
:1014AC000978143000F009FA042828BF042044B24B
:1014BC00FFF71AFF0023094A2B701370084A1370A8
:1014CC00E0B238BD4FF02A43E0E70424F8E700BF50
:1014DC002004002034040020380400201E040020C6
:1014EC001C0400200121FFF7CDBF000070B50B4D8F
:1014FC0004462B7883420AD2202838BF2024084E79
:10150C002146306807F012FC10B130602C7070BDB1
:10151C002146BDE87040034805F01CB82C0400209F
:10152C0030040020DD9000082DE9F047134D804673
:10153C002B680C46FBB1124A124F10783978914641
:10154C00884218D3104E2046FFF7D0FF326822B9DC
:10155C004FF4D1710D4804F0FDFF2246414630682E
:10156C0007F028FB002389F8003020462B683C70DC
:10157C00BDE8F0471847BDE8F08700BF2404002001
:10158C001D0400201F04002030040020F5900008EA
:10159C002DE9F84F90F8A2B00446BBF1010F0F46AD
:1015AC00154699469DF828609DF82CA008D1104648
:1015BC00FFF79CFF1F4A136890461BB9C4F804B090
:1015CC00002530E0BEB139462046FFF747FF032E19
:1015DC0028BF0326013EF6B2FF2E08D02368F10087
:1015EC0029FA01F120461B68C9B29847F2E700219D
:1015FC002046FFF747FFBAF1000F17D14FF42A032B
:10160C007900D8F80020636401F0FE01ABB204F15C
:10161C00140000F0FBF80022002818BF0025064B30
:10162C001A70064B1D702846BDE8F88F4FF02A4300
:10163C00E6E700BF300400201D0400201F0400203A
:10164C0007B5019300230093FFF7A2FF03B05DF8E9
:10165C0004FB00000148FFF7A5BE00BF7803002083
:10166C002DE9F3410D4616461F460446002800F0AE
:10167C0086805349B0F9580004F038FF5149804630
:10168C00B4F95A0004F032FF0146B8F1000F76D0DD
:10169C00002874D0404604F041FF206000286ED032
:1016AC00494B04F1040898426CD103F5DE33DA6936
:1016BC0042F40012DA61DA6902F400120092009A24
:1016CC001A6942F400121A611A6922F400121A61A2
:1016DC0042F21F03A4F85C303C4BC3F8008039493C
:1016EC00B4F95A0004F0E2FEB4F95800344904F09D
:1016FC00DDFE374823688542636006D9354885424C
:10170C0003D93548854288BF00203149FF238D42DB
:10171C008CBF4FF480450025C4E903570025E361D5
:10172C0094F88F302A46AB420CBF2B464023022143
:10173C00C4E90835A060666194F95C00A56184F881
:10174C00415001F053FA94F95C0001F081FA2A46F9
:10175C00022194F95D0001F049FA94F95D0001F061
:10176C0077FA404601F04CFB20B140F2D5211B48E2
:10177C0004F0F0FE00232366022384F88D3002B0BF
:10178C00BDE8F081164B9842A9D103F5DC33DA6938
:10179C0042F48002DA61DA6902F480020192019A61
:1017AC001A6942F480021A611A6922F480021A61E1
:1017BC0042F22123A4F85C30044BC3F804808EE77A
:1017CC0008930008D8920008005400403C04002004
:1017DC00A0860100801A060040420F00809100088C
:1017EC0000580040202A30B50ED800239CB2A242EB
:1017FC0004D8D2B280F88C20002030BDCD5CC41847
:10180C0084F86C500133F1E70120F6E72DE9F34140
:10181C0005460C469846174601F0D0F92B6B04355B
:10182C0021460093064643463A46284601F09AFC68
:10183C00044650B1002002B0BDE8F08101F0BEF9C1
:10184C00841B284602F04BFB30B9284602F044FBBF
:10185C00202801D0632CF1D9284602F040FB642CDF
:10186C0007D8820605D4430705D40028E2D004200B
:10187C00E1E70520DFE70320DDE710B5642304462C
:10188C00043001F05DFB02280AD0032801D068B9AE
:10189C0010BD94F84130202B0CBF02200520F7E737
:1018AC0094F84130202B18BF0620F1E794F8413012
:1018BC00202B0CBF02200420EAE72DE9F34105465A
:1018CC000C4690461F4601F079F906463FB90122B5
:1018DC002146284602B0BDE8F041FFF7CEBF2B6B86
:1018EC0004352146009342463B46284601F0D2FB84
:1018FC00044650B1002002B0BDE8F08101F05EF961
:10190C00841B284602F0EBFA30B9284602F0E4FAC0
:10191C00202801D0632CF1D9284602F0E0FA642C7F
:10192C0007D8820605D4430705D40028E2D004204A
:10193C00E1E70520DFE70320DDE720B119B14166BF
:10194C00043001F00BBD704720B119B18166043031
:10195C0001F004BD7047C36810B59A4204461CD10F
:10196C0071B9436E80F8891003B19847204694F8FA
:10197C00882004F168012023BDE8104001F078BCF8
:10198C0000230122C36580F88920C16D0423BDE8C2
:10199C0010400144683101F0A6BC10BD10B590F8A0
:1019AC0089300446012B05D1C36D1BB1C16D036E8B
:1019BC0068309847022384F8893000232046E36579
:1019CC00BDE8104001F0CABCC36D1F2BDEBFC36D58
:1019DC000133C36590F88930012BDAB205D1C16DA2
:1019EC0004230144683101F07EBC7047002380F869
:1019FC008830704790F88A300BB901F0AFBC704753
:101A0C00014B186801F0A8BD3C040020014B18687C
:101A1C0002F0C6B93C040020014B586801F09CBD93
:101A2C003C040020014B586802F0BAB93C04002079
:101A3C000022C0E90022C0E9022202610262704762
:101A4C0038B54568044635B1284600F03EFC3821CF
:101A5C00284605F09BFE206810B1102105F096FE7B
:101A6C00A06810B103685B689847E06810B1036820
:101A7C005B689847206910B103685B6898472046FB
:101A8C0038BD1FB5044600688DF80D2058B10023F1
:101A9C008DF80C10CDE900330222012303A900F0CC
:101AAC0091FB04B010BD01F07F0103468DF80C10C2
:101ABC0000900222606803A900F064FDF1E7F8B51C
:101ACC000446DB0002F0070203F03803134343EA39
:101ADC0081139DF8187080F84C3090F850309DF8B8
:101AEC001C509DF8206067F3471380F85030ED00D0
:101AFC0090F8483006F0070605F0380503F040036F
:101B0C0035431D4380F848500022F421FFF7B9FFFC
:101B1C0094F850202046F2215209FFF7B2FF94F8B6
:101B2C0048202046C2F3C20302F007019B0043EA9F
:101B3C00411343EAD212F521FFF7A3FF94F84C208E
:101B4C002046C2F3C20302F007019B0043EA411393
:101B5C0043EA9212F421BDE8F840FFF792BF1FB59B
:101B6C000446006868B100230122CDE9002303ABD1
:101B7C008DF80C10194600F091FB9DF80C0004B088
:101B8C0010BD0122FF2361F07F01CDE9002303ABDF
:101B9C008DF80C106068194600F016FDEDE71FB5C6
:101BAC000446006890B102238DF80C100021CDE999
:101BBC00003103AB0122194600F070FB9DF80C00BC
:101BCC009DF80D3043EA002004B010BD0223FF2223
:101BDC0061F07F01CDE9003203AB8DF80C100122CE
:101BEC001946606800F0F0FCE8E708B5FFF7D7FF8E
:101BFC0040BA80B208BD1FB504460068B0B10323DB
:101C0C008DF80C100021CDE9003103AB01221946EF
:101C1C0000F044FB9DF80D309DF80C001B0243EACC
:101C2C0000439DF80E00184304B010BD0323FF229F
:101C3C0061F07F01CDE9003203AB8DF80C1001226D
:101C4C001946606800F0C0FCE4E738B5882104460A
:101C5C00FFF7CBFF8A21A0842046FFF7C6FF8C211B
:101C6C00E0842046FFF7C1FF8E2120852046FFF738
:101C7C00BCFF902160852046FFF7B7FF9221A0851D
:101C8C002046FFF7B2FF9421E0852046FFF7ADFF19
:101C9C00962120862046FFF7A8FF982160862046D3
:101CAC00FFF7A3FF9A21A0862046FFF79EFF9C21F9
:101CBC00E0862046FFF799FF9E2120872046FFF7FC
:101CCC0094FFA12160872046FFF749FFE12184F8AA
:101CDC003C002046FFF789FFE321E0872046FFF711
:101CEC003EFFE42184F840002046FFF738FFE52151
:101CFC0005462046FFF733FF6DB200F00F0040EAB7
:101D0C000510E621A4F842002046FFF728FFE52144
:101D1C0005462046FFF723FF6DB2001140EA05107F
:101D2C00A4F84400E7212046FFF719FF84F8460089
:101D3C0038BDF32108B5FFF712FF00F0010008BD14
:101D4C0030B5D02185B00446FFF709FF6028A061AB
:101D5C001FD1B622E0212046FFF793FE0A2005F0A2
:101D6C0083F82046FFF7E5FF05460028F6D120460C
:101D7C00FFF76BFF052303211A4620460093CDE99C
:101D8C000155FFF79CFE642005F06EF8012005B0AC
:101D9C0030BD0020FBE7F8B5044640680E461746F8
:101DAC00B8B9206810B1102105F0F0FC102005F036
:101DBC00EBFC054631463A4600F0D8F9012128469D
:101DCC00256000F0EFF938B12046BDE8F840FFF788
:101DDC00B7BF00F083FAF6E70020F8BD10B5FA2182
:101DEC000446FFF708FFB0F5000F36D0021110467D
:101DFC00002AA18CB8BFD01D002AB8BF0F32C1EB8E
:101E0C00221252434FEA4103C3EBE000B4F92630EF
:101E1C00B4F9281048BF02F6FF72434312134A4329
:101E2C00002BB8BF03F2FF73002ABCBF02F57F5230
:101E3C003F32DB1203EBA233226A1344E36103EB60
:101E4C00830313F1800048BF03F27F100012FEF7EA
:101E5C001DFF0349FFF722F810BD0248FCE700BF45
:101E6C000000C8420000C07F2DE9F74F8046FFF705
:101E7C00B5FFF7214046FFF7BEFEB0F5000F8146D7
:101E8C0000F00481D8F81C20B2F5FA3C4FEAE2735A
:101E9C00ACFB0C1243F1FF3E0CFB0EF3CDE9001230
:101EAC00019A02EB4303B8F92C20019302FB0EF4C8
:101EBC00D3170CFB0344A2FB0C2323441D030199F1
:101ECC0045EA12551403B8F92E2002FB01FA0099C9
:101EDC00D31701FB03AAA2FB01235344002A73F17D
:101EEC00000102DAFF3243F100034FEA122A4AEAF8
:101EFC00036AB8F82A204FEA232B1AEB04044BEBA5
:101F0C00050B0034A4FB02454BF5004B02FB0B55B3
:101F1C00002C75F1000303DA14F1FF3445F10105CF
:101F2C006A10EB1752EA030100F0B280B8F934A042
:101F3C00019900980AFB01F1B8F932404FEAEA7BAB
:101F4C0000FB0B15AAFB00AB04FB0EFEAB44E51724
:101F5C000CFB05EEA4FB0C454FEA29197544C9F599
:101F6C0080194FEA454C4CEAD43C4FEA444E4C465F
:101F7C00E5171EEB0A00B8F930404FEAC57E4FF06A
:101F8C0000054CEB0B014EEA590E4FEAC97C4FEAA7
:101F9C00C40940F63544281849EB0101BCEB00009C
:101FAC006EEB010EA0FB040104FB0E11FFF712F8FF
:101FBC00002871F1000281468A460B4605DA41F68B
:101FCC00FF7019EB000041EB0503B8F93A205913E7
:101FDC00400B40EAC34002FB01FCA2FB0045D317B7
:101FEC0000FB03CC6143654400FB0513A4FB00011B
:101FFC0019440B46002873F10001024606DA6FF013
:10200C007E4142184FF0000141EB0303B8F938B0A0
:10201C00510E0BFB0AF54FEAEB7C41EAC311581643
:10202C0009FB0C53ABFB094511EB09014AEB000012
:10203C001D44002C75F1000305DA164BE4184FF023
:10204C00000343EB0505E30C43EA4533CE184FEA96
:10205C00E54240EB0207002E77F1000302DAFF366F
:10206C0047F100071022330A43EA0760B8F936300B
:10207C003912C3FB0201FEF7D9F90022064BFEF719
:10208C0003FAFEF7F9FC03B0BDE8F08F0348FAE75A
:10209C000020F8E7FFFF07000000703F0000C07F42
:1020AC0010B50446FFF79AFEFD212046FFF777FD99
:1020BC00B0F5004F56D0B4F94220E3691205C2EBDB
:1020CC008032B4F94400A3F5963303FB102094F846
:1020DC00402010F5804044BF00F5FF407F305A434C
:1020EC0094F9461048BF02F2FF724B434FEAE222CA
:1020FC0048BF03F2FF3302F500429B12534348BF23
:10210C0003F2FF33B4F93E209B1203F50013534343
:10211C0013F5005344BF03F57F533F339B13C01398
:10212C00584303460028BCBF00F5FF437F33DB1345
:10213C005B4394F83C2048BF7F33DB11534348BFCB
:10214C000F33A0EB231020EAE070B0F1C85FA8BFFA
:10215C004FF0C8500013FEF795FD4FF06A51FEF793
:10216C00E9FD10BD0048FCE70000C07F4260002282
:10217C00027220220170C2607047037A10B50446C7
:10218C0053B121786068FFF769F96068FFF7AAF925
:10219C00B0FA80F0400910BD012100F003F80028CE
:1021AC00EFD1F8E738B504460D4640680021FFF73B
:1021BC0051F90120207225B12046BDE83840FFF7C7
:1021CC00DCBF38BD2DE9F8431F46DDE90896C3682E
:1021DC00154632449A420446884602D90020BDE88E
:1021EC00F88301784068FFF739F97EB960682A46B0
:1021FC00036841465B6898478542EFD13946606871
:10220C00FFF740F9B0FA80F04009E8E7B9F1000FA8
:10221C00ECD060683246036849465B689847B04228
:10222C00DCD1E3E72DE9F041154604460F46D2B266
:10223C0001784068FFF704FA85420BD10026B542BD
:10224C0006F1010809D960680368DB689847B8553E
:10225C004646F4E70020BDE8F0810120FBE72DE9BC
:10226C00F84307468846164699460025B54212D2D1
:10227C00FA68741B944228BF1446331BAB4294BFBC
:10228C004B4600232246384608EB0501FFF7CAFFF0
:10229C0010B12544EAE70120BDE8F88373B51D466B
:1022AC000023CDE900339DF81C300446069EFFF751
:1022BC0089FF40B1012332462946204602B0BDE8D1
:1022CC007040FFF7CCBF02B070BD10B5044640683B
:1022DC0010B10C2105F05AFA204610BD38B5044651
:1022EC0090F90E00411C07D0012104F049FD012199
:1022FC0094F90E0004F092FD25683DB12321284687
:10230C0000F0CAF9012084F8340038BD012194F999
:10231C000F0004F035FD637B94F90F00012B94BF83
:10232C002946012104F07AFD94F91000421C07D0D3
:10233C00012104F025FD012194F9100004F06EFD3B
:10234C0094F91100431CDDD0002104F019FDD9E7EC
:10235C002DE9F04F04460068134687B040B10122C6
:10236C0000920A46232100F013FA07B0BDE8F08F63
:10237C00227BCB18002A0CBF0122802203920398E7
:10238C000A78DFF87C911042A0685A4A08BF4FF0D7
:10239C00010EB2FBF0FC5FFA8CFC18BF4FF0000E84
:1023AC00E04655480593059B8B42DED000250B7803
:1023BC000493039BBCF1000F0CD0504A4668126882
:1023CC00B2FBF9F208FB02F2D0F804A0AAEB060A61
:1023DC005245F9DC667BA26916F0FD0F51D194F9D8
:1023EC001060013615D0049E16EA030A14BF0126AC
:1023FC00002676450DD06669D4F824B0D6F800E0F6
:10240C00BAF1000F37D04EEA0B0EC6F800E04FF0D1
:10241C00010E1668E76A3E431660BCF1000F0DD042
:10242C00364ED0F804A03668B6FBF9F608FB06F673
:10243C00D0F804B0ABEB0A0B5E45F9DC94F91160F3
:10244C00013605D0E669A76A36683E4218BF1D43BF
:10245C001668E76A26EA0706166094F9112001321D
:10246C0018BF0D70227B002A42D15B00DBB2002B1F
:10247C00A0D1013197E72EEA0B0EC6F800E0D64644
:10248C00C7E71668E76A3E431660BCF1000F0DD033
:10249C001A4ED0F804A03668B6FBF9F608FB06F61F
:1024AC00D0F804B0ABEB0A0B5E45F9DC94F9106084
:1024BC0001360DD06669049FD4F824B0D6F800A07C
:1024CC001F4214BF4AEA0B0A2AEA0B0AC6F800A0FC
:1024DC001668E76A26EA0706166094F9112001329D
:1024EC00BBD0E2691668A26A164218BF1D43B4E756
:1024FC005B08BCE720A10700001000E020000020D2
:10250C0040420F0007B501228DF807100DF10701AD
:10251C00FFF71EFF9DF8070003B05DF804FB10B534
:10252C00046886B05CB1426803AB07CA83E8070055
:10253C00059A2321009220460CCB00F0D5F806B06A
:10254C0010BD006810B1232100F002B9704790F95A
:10255C000E00431C01D004F061BC704710B504465A
:10256C00FFF7DDFF2046BDE810400021FFF7EFBF6D
:10257C0010B504460121FFF7EAFF2046BDE81040E4
:10258C00FFF7DFBF2DE9F0411C4606460D46174606
:10259C00FFF7E4FF069B04EB0308444508D12F44E6
:1025AC00BD420BD0304615F8011BFFF7ABFFF7E728
:1025BC00304614F8011BFFF7A5FFEEE73046FFF796
:1025CC00D7FF0120BDE8F0812DE9F0410D461746FB
:1025DC0006461C469DF81C80FFF7C0FF2F44BD42E9
:1025EC000AD1069BE518AC420CD041463046FFF7A9
:1025FC0089FF04F8010BF6E7304615F8011BFFF7CD
:10260C0081FFECE73046FFF7B3FF0120BDE8F08116
:10261C00232970B504461BD800230C2505FB03F6B3
:10262C00A65FD8B2B1420DD00133042BF6D1012AEA
:10263C000CD100230C2505FB03F2A65ED8B20136A3
:10264C0001D1A15270BD0133042BF4D11846F9E726
:10265C000420F7E770B503464FF6FF7201250024FE
:10266C000B4E00F130011A805E601D725C720C33EF
:10267C008B42F8D1074B0286998EA0F89010D98E18
:10268C00A0F892105B8EA0F89620A0F8943070BD44
:10269C0000093D00CC950008232970B505460E466F
:1026AC0021D80122FFF7B4FF032804461BD8232EA0
:1026BC000BD0B5F99630013307D10121304604F027
:1026CC005FFB0121304604F0A9FB0C20002300FB2A
:1026DC00045485F88530627A237A616805F13400F8
:1026EC0000F0D2F82E8670BD82B0F8B5232906AC66
:1026FC0005460E4684E80C0026D80122FFF788FF19
:10270C000328044620D80C2707FB0057079B232ED1
:10271C007B60BDF820303B810BD0B5F9963001338E
:10272C0007D10121304604F02BFB0121304604F087
:10273C0075FB0C2000FB04547968237A627A05F14E
:10274C00340000F0A1F82E86BDE8F84002B07047C6
:10275C002329F0B519D803464FF6FF74012600273C
:10276C000A4D00F13002B3F900C00C338C4501BFA7
:10277C0023F80C4C43F8085C03F8046C03F8037C56
:10278C009342F0D14FF6FF730386F0BD00093D0074
:10279C002DE9F34105460C4616461F469DF8208050
:1027AC00002B3BD0002A39D0232937D8B0F9303050
:1027BC0099420FD00022FFF72BFF03282ED80C23B1
:1027CC0003FB0050037A427A416805F1340000F0B3
:1027DC005BF82C86232C07D0B5F99630013303D146
:1027EC000021204604F01AFB4FF47A733246009312
:1027FC003146BBB205F1340000F06EF9232C0DD03C
:10280C00B8F1010F0AD1B5F99630013306D1414622
:10281C00204602B0BDE8F04104F000BB02B0BDE8B8
:10282C00F08100000148FFF715BF00BF44040020F1
:10283C0070B50D0E445991FAA1F3B3FA83F30F2638
:10284C009B0006FA03F324EA030491FAA1F1B1FA0E
:10285C0081F1890002FA01F12143415170BD000060
:10286C000346074A106853B1064A934205D002F555
:10287C007842934203D102F0B5BA02F0A3BA704782
:10288C0020000020003800402DE9F74F0D46174678
:10289C0098460446002800F0D0808649B0F95E00C6
:1028AC0003F024FE84498146B4F95C0003F01EFE5B
:1028BC0082498246B4F9600003F018FE804906464E
:1028CC00B4F9620003F012FE8346B9F1000F00F078
:1028DC00B480BAF1000F00F0B080002E00F0AD8093
:1028EC005146484603F01AFE59468246304603F0DC
:1028FC0015FE01468146504603F010FEA065BAF164
:10290C00000F00F09A80B9F1000F00F096800028BB
:10291C0000F09380B4F9623020605A1C14BF4FF45D
:10292C0080234FF40073A3614FF482736360FFF74D
:10293C0097FFB5EB500FC0F083800023002617F0F3
:10294C00FD0FE3610CBF33460123022F636134BFDB
:10295C003346022323610723B045E36214BF334699
:10296C008023B4F95E00C4E90836A660A662E6606E
:10297C00504903F09BFDB4F95C004F4903F096FD00
:10298C00B4F960004D4903F091FD2369B342B4F9E9
:10299C00603008BF0225C3F3031218BF0125042AB7
:1029AC008CBF3046474903F00F0398BF51F8220003
:1029BC00454A52F823100B0EC65891FAA1F2B2FAFE
:1029CC0082F39A000F239340334091FAA1F2B2FAAA
:1029DC0082F2022D4FEA820223FA02F34FEA11250A
:1029EC004DD0042B02D10822FFF722FFC26822EA45
:1029FC00050295FAA5F50123B5FA85F503FA05F557
:102A0C001543C5602E49B4F9620003F04FFD2368ED
:102A1C002E4A93423FD12E4B9A6942F480529A61CE
:102A2C009B6903F480530093009B204602F0C4FA88
:102A3C002268136843F04003136003B0BDE8F08FC5
:102A4C00B5EB900F01D3082378E7B5EBD00F01D38A
:102A5C00102373E7B5EB101F01D318236EE7B5EB0A
:102A6C00501F01D3202369E7B5EB901F01D3282316
:102A7C0064E7B5EBD01F2CBF302338235EE7042B63
:102A8C0002D10822FFF7D4FEC36823EA050395FAA6
:102A9C00A5F5C360B6E70F4A9342C6D10C4BDA6971
:102AAC0042F48042DA61DB6903F480430193019BB9
:102ABC00BBE700BFA094000870940008D0940008F5
:102ACC00009500080C0000206892000800300140BE
:102ADC00001002400038004013B538B133B1049CEB
:102AEC00009402F0A4FA032803D000B1022002B033
:102AFC0010BD0120FBE7000003460A4910B5086829
:102B0C000344EFF30882934205D90C224FF0FF30B7
:102B1C00054B1A6010BD054A054C121B9342F4D2AA
:102B2C000B60F7E70000002084110020005000200B
:102B3C00000400007047000038B50E4B05461878AD
:102B4C004FF47A73B3FBF0F30B4A1068B0FBF3F05D
:102B5C0000F0A0F8044658B90F2D09D802462946B2
:102B6C004FF0FF3000F042F82046044B1D6038BD9A
:102B7C000120FCE7040000202000002008000020B9
:102B8C00074A08B51368032043F01003136000F0E4
:102B9C001BF80020FFF7D0FFFFF7CCFF002008BD8B
:102BAC0000200240034A044B11681B780B4413604D
:102BBC00704700BF9007002004000020014B1868EC
:102BCC00704700BF9007002007490302CA6803F44E
:102BDC00E06322F4E0621204120C134343F0BF636F
:102BEC0043F40033CB60704700ED00E0164B30B57A
:102BFC00DC68C4F30224C4F10703251D042B28BF91
:102C0C000423062D4FF0FF3598BF002405FA03F37B
:102C1C0088BF033C21EA0303A34005FA04F422EA2B
:102C2C000402002843EA0203ACBF00F16040074AEB
:102C3C004FEA0313DBB2ABBF00F5614000F00F00AD
:102C4C0080F80033135430BD00ED00E014ED00E0CB
:102C5C00002808DB0123420900F01F0003FA00F0F2
:102C6C00014B43F82200704700E100E000280DDB27
:102C7C000122430900F01F0002FA00F0044A20333D
:102C8C0042F82300BFF34F8FBFF36F8F704700BF25
:102C9C0000E100E00138B0F1807F0AD2F021064B50
:102CAC00064A586082F823100020072298601A60A8
:102CBC0070470120704700BF10E000E000ED00E01D
:102CCC00002809DB0122430900F01F0002FA00F082
:102CDC00024A603342F82300704700BF00E100E075
:102CEC00704708B5FFF7FCFF08BD000008B590F869
:102CFC002130022B03D004238363012008BD036819
:102D0C001A6822F00E021A601A6822F001021A6088
:102D1C00174A93421CD0143293421BD01432934264
:102D2C001AD0143293421AD0143293421AD014325D
:102D3C0093420CBF4FF480134FF080730D4A5360D5
:102D4C004FF480730384436B7BB198470020D5E725
:102D5C000123F3E71023F1E74FF48073EEE74FF410
:102D6C008053EBE74FF48033E8E71846C6E700BF23
:102D7C00080002400000024090F82100704700005B
:102D8C00044A08B55169014202D0506103F0F8FEC3
:102D9C0008BD00BF000401402DE9F84606460F4669
:102DAC0091461D464FEA114A3368BAF1010F0CBF28
:102DBC005C699C6927EA0404A4B2B4FA84F464093B
:102DCC00A14501D0002017E06A1CEED0FFF7F6FEFB
:102DDC00089BC01AA84201D8002DE5D1002320225F
:102DEC000120336386F83D2086F83E30326C86F83D
:102DFC003C3042F020023264BDE8F8867047000097
:102E0C0070B5044608B9012070BD90F83D3003F050
:102E1C00FF021BB980F83C20FFF7F0FF2423226847
:102E2C0084F83D30136823F00103136001F0CAFFEE
:102E3C003F4A6368934294BF3E4A3F4A90428CBFDC
:102E4C0000220122002ADED13C4E2268B0FBF6F6AD
:102E5C005168013821F03F01314351603449156A02
:102E6C008B4281BF4FF4967171434FF47A76B1FB6C
:102E7C00F6F125F03F0594BF711C01312943116215
:102E8C00D1692B4D21F44F41AB4221F0FF0132D8D7
:102E9C005B00B0FBF3F0431C40F6FC70034242D0E5
:102EAC00C3F30B030B43D3611168D4E9073021F052
:102EBC00C00103430B4313609168D4E9030321F46D
:102ECC000341034321F0FF010B439360D168D4E924
:102EDC00053021F0FF0103430B43D360136800203E
:102EEC0043F0010313602023206484F83D302063F9
:102EFC0084F83E0088E7A56855B903EB4303B0FBA3
:102F0C00F3F30133C3F30B037BB143F40043C9E781
:102F1C0019256B43B0FBF3F30133C3F30B0323B15C
:102F2C0043F44043BEE70423BCE70123BAE700BFE8
:102F3C00A08601007F841E00FF083D0040420F0068
:102F4C002DE9F04F044685B01E460F469146FFF71B
:102F5C0035FE94F83D300546202B03D0022005B0F9
:102F6C00BDE8F08F00901923012220464849FFF755
:102F7C0013FF0028F2D194F83C30012BEED0012342
:102F8C0084F83C3023684FF0010A1A68DFF800B16E
:102F9C00D20758BF1A6807F0FE075CBF42F0010267
:102FAC001A601A6822F400621A60242384F83D30F7
:102FBC0000232364A3F58033E36222684FF00111F0
:102FCC001368204643F48073136033460022009547
:102FDC00FFF7E2FE08B10120C1E723684FF0A0081B
:102FEC001F61FFF7EBFD054623685A695B69C2F365
:102FFC004002C3F3802394F83D10A02901D0134361
:10300C0021D04FF02008236884F83D805A6912F0D3
:10301C00020F1A6842F400721A6024D00022039244
:10302C005A69204603929B6901220393039B18491A
:10303C0019230095FFF7B0FE0028CCD184F83D8011
:10304C0084F83C008BE7FFF7B9FD401BB04200D879
:10305C000EB984F83D8023685A695B69C2F340025B
:10306C00C3F38023C7E76FF4806259465A61204648
:10307C00192301220095FFF78FFE0028ABD10AF12E
:10308C00010ACA4599D384F83D8084F83C00A2E734
:10309C000200100073B500240094019490F83D4098
:1030AC00069D202C02D0022002B070BD082D01D04C
:1030BC00012D1FD146F2A816294C2468B4FBF6F654
:1030CC00192474430194019C013C0194019C6CB93A
:1030DC002023046380F83D3080F83E40036C80F878
:1030EC003C4043F0200303640120DDE70468A4693D
:1030FC00A407E8D490F83C40012CD4D0046826688E
:10310C00F6075EBF266846F001062660266826F4A0
:10311C0000662660212680F83D60102680F83E600F
:10312C00002606644385438DC56241640385036BA9
:10313C0042620093009B112B05D1B5F52A0F02D0EA
:10314C00B5F12A4F03D1236843F480732360002325
:10315C0080F83C306268184642F4E0626260A3E793
:10316C002000002073B500240094019490F83D4099
:10317C00069D202C02D0022002B070BD082D01D07B
:10318C00012D1FD146F2A816384C2468B4FBF6F674
:10319C00192474430194019C013C0194019C6CB969
:1031AC002023046380F83D3080F83E40036C80F8A7
:1031BC003C4043F0200303640120DDE70468A4696C
:1031CC00A407E8D490F83C40012CD4D0012480F81A
:1031DC003C4004682668F6075EBF266846F0010688
:1031EC002660266826F400662660222680F83D605C
:1031FC00102680F83E60002606644385438DC56228
:10320C0041640385036B42620093438D9BB2022B96
:10321C0025D1202D01D0102D21D1009B122B2368FC
:10322C001ED14FF4407123F480632360236843F470
:10323C0000632360009B122B05D1B5F52A0F02D039
:10324C00B5F12A4F03D1236843F480732360002324
:10325C0080F83C30626818460A4362608CE7236849
:10326C0043F480634FF4E0612360E3E72000002027
:10327C0037B590F83D4004F02804282C31D10029B2
:10328C002DD0002A2BD090F83C40012C29D0056879
:10329C002C68E4075EBF2C6844F001042C602C6899
:1032AC0024F400642C60292480F83D40202480F80C
:1032BC003E40002404644285428DC36201946B69D4
:1032CC0041620193AB69028580F83C402046019332
:1032DC00019B6B6843F4E0636B6003B030BD01206D
:1032EC00FBE70220F9E737B590F83D4004F02804DD
:1032FC00282C31D100292DD0002A2BD090F83C401D
:10330C00012C29D005682C68E4075EBF2C6844F0BA
:10331C0001042C602C6824F400642C602A2480F8AE
:10332C003D40202480F83E40002404644285428DB8
:10333C00C36201946B6941620193AB69028580F8A9
:10334C003C4020460193019B6B6843F4E0636B6047
:10335C0003B030BD0120FBE70220F9E790F83D30C7
:10336C00202B14D1282380F83D30036800201A68E4
:10337C00D2075EBF1A6842F001021A601A6842F462
:10338C0080621A605A6842F440725A607047022098
:10339C00704770477047704770477047002370B58F
:1033AC00406A026890F83D101468466B856B24F4F3
:1033BC008064B362AB62146043851468736324F059
:1033CC0001046B63146090F83D40C9B2602C08D1C5
:1033DC00202280F83D2080F83E300364FFF7DDFFAB
:1033EC0070BD01F0280128290DD1146844F00104A6
:1033FC001460146844F480641460036380F83D1016
:10340C00FEF7F8FAECE7202280F83D2080F83E30F9
:10341C00F6E7000010B590F83D2090F83E100446F9
:10342C0010290368D2B212D1222A10D1196821F4C2
:10343C00006119605968090504D4602A1CBF202258
:10344C0084F83D200022226384F83E2007E002F03D
:10345C0028012829EED10022226384F83D105A68F5
:10346C0012F400624CD05A68606B22F400625A600D
:10347C0090F82130012B364B28D04363FFF736FCF4
:10348C0050B12268606B136823F001031360202392
:10349C0084F83D30436B984794F83D30226CDBB296
:1034AC00520712D5282B10D122682046536823F4DA
:1034BC00E0635360274B2022E3620023236384F8EC
:1034CC003D2084F83E30FEF769FA10BDA06B4363D3
:1034DC00FFF70CFC0028DFD023685A69520605D58B
:1034EC001A69636A1A70636A013363622268A06B9B
:1034FC00136823F001031360202384F83D30C9E7DF
:10350C0094F83D10602915D1202184F83D102264D7
:10351C005A69500605D51A69636A1A70636A0133D1
:10352C00636222682046136823F001031360FFF7DF
:10353C0034FFB1E75A69510605D51A69636A1A70E6
:10354C00636A013363622046FEF754FAA4E700BFB6
:10355C00A93300080000FFFF70B5036804465A68E1
:10356C00C16A90F83E5090F83D00102D8CB0EEB230
:10357C00C0B202D0402E40F0B7829D695869C60790
:10358C0007D4B1F52A0F02D0B1F12A4F52D10CB0A9
:10359C0070BD91054ED5E26AB2F52A0F0CD101220D
:1035AC00E26294F83E20402A11D1226D52B9626C2D
:1035BC0002F0FE021A61EAE7E26AB2F12A4FF0D198
:1035CC000822EDE7626C42F00102D2B2F2E7226906
:1035DC00B2F5804F1BD194F83D20212A626C12D198
:1035EC0002F0FE021A61626B12B9A16B0029CED0F7
:1035FC00926A1AB9A26B926A002AC8D05A6842F42D
:10360C0000625A60C3E742F00102D2B2EAE7226DCF
:10361C0032B9626CD21102F0060242F0F002C9E734
:10362C00226D012AB3D1626CD21102F0060242F073
:10363C00F102BFE7060703D5910501D5626CE4E7FB
:10364C00860740F1E680910540F1E38094F83E1046
:10365C00E26A256B94F83D00C9B2222840F0D18073
:10366C00206D40B9402906D100905A6900929B699F
:10367C000093009B8BE7216D81B92069B0F5404F19
:10368C000CD101915A6901929A690192019A1A68B6
:10369C0042F480721A60236D013328E0618D89B287
:1036AC0051B902915A6902929A690292029A1A6865
:1036BC0042F400721A6019E0618D89B201294AD175
:1036CC0012F5803F1CD11A6822F480621A605A6885
:1036DC0012F400620DD01A6822F480621A60002283
:1036EC0003925A6903929B690393039B00232365FE
:1036FC004DE704925A6904929A690492049AD6E7A7
:10370C00082A1CD0202A1AD0122D0DD1012A16D12C
:10371C001A6822F480621A60002205925A69059296
:10372C009B690593059BE1E7102AF1D88F4921FA93
:10373C0002F2D607ECD51A6842F48062EBE71A68FD
:10374C0022F480621A60002206925A6906929A69E3
:10375C000692069AABE7618D89B2022933D1102A01
:10376C0005D88249D140C94311F0010120D0196814
:10377C0041F4006119600021079159690791996919
:10378C0007910799196821F48061196059680D0532
:10379C00ACD512F5803F06D0511E1F29A6D8744A0D
:1037AC00CA40D007A2D55A6842F480525A609DE7AD
:1037BC00186840F4806018600891596908919969FB
:1037CC0008910899E2E7196841F480611960596819
:1037DC0009050ED512F5803F07D0013A1F2A08D8EB
:1037EC00634921FA02F2D60703D55A6842F4805293
:1037FC005A60002209925A6909929B690993099BA4
:10380C0074E700220A925A690A929B690A930A9BEE
:10381C00BDE66D07596840F1AD800E053FF5B7AEBA
:10382C000506C0F3800169D5500567D5002968D11C
:10383C0094F83D20258D94F83E10D2B2E06AC9B2BE
:10384C00C5B9212A18D1082878D0202876D010F5AF
:10385C00803F73D05A6822F4E0625A6011232363CC
:10386C00002384F83E302023204684F83D30FFF7B7
:10387C0090FD8CE6212A05D040297FF488AE222ABF
:10388C007FF485AE628D92B21AB95A6822F48062C6
:10389C00B7E694F83E20402A26D1226D62B9E26C3C
:1038AC00012AA26C04D1D2B21A61236D02331EE735
:1038BC00C2F307221A61EEE6226D012A02D1A26C34
:1038CC00D2B2F7E7226D022A7FF461AE94F83D2064
:1038DC00222A04D11A6842F480721A6057E694F8CE
:1038EC003D20212A7FF453AE626A12F8011B196144
:1038FC006262638D013B9BB2638548E600293FF40D
:10390C0046AE92057FF543AEE16A94F83D20212A3C
:10391C007FF43DAE628D92B2002AE5D108290DD01C
:10392C0020290BD011F5803F08D0596821F4E061B3
:10393C0059601123236384F83E2094E75A6820468B
:10394C0022F4E0625A601A6842F400721A60002392
:10395C002022236384F83D2094F83E2084F83E30E6
:10396C00402A84D1FFF717FD11E600BF14000100B7
:10397C00818000800E053FF50AAE4506C0F380013C
:10398C0048D5500546D5002947D194F83D20222A28
:10399C007FF4FDAD628D92B2032A14D91A69636A61
:1039AC001A70636A01336362638D013B9BB263855A
:1039BC00638D9BB2032B7FF4EAAD2268536823F42A
:1039CC0080635360E3E5E06A02283FF4E0AD012A2E
:1039DC003FF6DDAD1A6822F480621A605A6822F450
:1039EC00E0625A601A69636A1A70636A013363622F
:1039FC00638D013B9BB26385202384F83D3094F8A2
:103A0C003E3084F83E10402B68D121632046FFF7EE
:103A1C00C3FCBCE500293FF4BAAD92057FF5B7AD08
:103A2C00E26A608D616A80B2042809D15A6822F476
:103A3C0080625A601B690B70636A0133636258E7DA
:103A4C00608D80B203280CD15868042A20F4806061
:103A5C005860EFD0022AEDD01A6822F480621A6006
:103A6C00E8E7608D80B20228E4D1012A01D0102A47
:103A7C0028D11A6822F480621A601B690B70626A82
:103A8C00531C6362638D013B9BB2638523681B6986
:103A9C005370636A226801336362638D013B9BB28E
:103AAC006385536823F440735360202384F83D30BE
:103ABC0094F83E30402B4FF0000384F83E300DD18B
:103ACC002363A3E7042A01D0022A03D11A6842F423
:103ADC008062D1E71A6842F40072CDE712232046C7
:103AEC002363FFF757FC52E5216C11B3002559698C
:103AFC008E0728D5960526D5226C02B19D6994F8BF
:103B0C003D2002F02802282A16D15A686FEA950146
:103B1C0022F480625A602B064FF00003204654BFFB
:103B2C00A289228B01F0010184F83C30FDF713FFD0
:103B3C002DE59D695969DBE76FF002025A6100239C
:103B4C0084F83C3023E5CE0640F1B180950540F178
:103B5C00AE8094F83D505A68EDB222F4E0625A609F
:103B6C0000220B925A690B921A6842F001021A60F9
:103B7C000B9A1A6822F480621A605A68120520D5D2
:103B8C0005F0F702222A4AD1A06B0268526892B261
:103B9C006285628D92B21AB1226C42F004022264E8
:103BAC005A6822F400625A60FFF7E6F8012808D040
:103BBC00A06B794B4363FFF799F810B1A06B436B83
:103BCC009847638D9BB213B323685A69560709D57E
:103BDC001A69636A1A70636A01336362638D013B0D
:103BEC009BB2638523685A69500609D51A69636AC2
:103BFC001A70636A01336362638D013B9BB2638508
:103C0C00638D9BB21BB1236C43F004032364236CC0
:103C1C0013B320460CB0BDE87040FFF7FBBB606BE4
:103C2C000268526892B26285628D92B21AB1226CAD
:103C3C0042F0040222645A6822F400625A60FFF7D0
:103C4C009BF80128BDD0606B534B4363FFF74EF8D4
:103C5C000028B6D0606BB2E72A2D06D12363282347
:103C6C00204684F83D30FDF7AFFE94F83D30282B0C
:103C7C000CD14A4B2022E36200232046236384F8B4
:103C8C003D2084F83E30FDF789FE80E4236B222B27
:103C9C0002D0222D7FF47BAC00232022236384F8F6
:103CAC003D2084F83E302046FDF78EFE6FE400F098
:103CBC00F7002128C1F3800535D1090627D5560513
:103CCC0025D53DBB94F83D10628DC9B292B2002A45
:103CDC003FF45DAC626A12F8015B1D616262628D39
:103CEC00013A92B26285628D92B2002A7FF44FAC97
:103CFC0029297FF44CAC5A6822F480625A6028233C
:103D0C002063204684F83D30FDF770FE3FE4002D23
:103D1C003FF43DAC95057FF53AAC628D92B2002A2A
:103D2C003FF435ACE0E5480627D5510525D53DBB1C
:103D3C0094F83D20618DD2B289B200293FF427ACB2
:103D4C001969636A1970636A01336362638D013B9D
:103D5C009BB26385638D9BB2002B7FF418AC2A2A2F
:103D6C007FF415AC2268536823F4806353602223DC
:103D7C002363282384F83D3095E7002D3FF407ACEE
:103D8C0092057FF504AC628D92B2002A3FF4FFAB32
:103D9C001A69636A1A704FE6A93300080000FFFF26
:103DAC00F8B5036804465F695E68FA05C7F3002539
:103DBC000BD5F005C6F3002507D56FF480720125ED
:103DCC005A611A6842F400421A60B90506D5F20528
:103DDC0042BF6FF4007245F002055A61780537D581
:103DEC00F10535D594F83EC0618D94F83D20BCF1B9
:103DFC00200F206B89B2D2B25AD1002958D102F0CF
:103E0C00F701212903D0282A52D1212850D194F826
:103E1C003D20E16AD2B2082901D020292AD1282AD2
:103E2C0028D12C4A2046E2625A6822F4E0625A6099
:103E3C006FF480625A611A6822F480621A6000235F
:103E4C002022236384F83D2084F83E30FDF7A6FD44
:103E5C003A053BD5F30539D56FF40062236845F07C
:103E6C0008055A61236C20461D432564BDE8F840C3
:103E7C00FFF7D0BA212A17D116492046E1622263F6
:103E8C00202284F83D20002284F83E205A6822F437
:103E9C00E0625A606FF480625A611A6822F48062A0
:103EAC001A60FDF7A3FDD3E76FF480625A61CFE788
:103EBC006FF480625A6194F83E2045F00405102A94
:103ECC0002BF1A6842F400721A60C1E7002DC9D112
:103EDC00F8BD00BF0000FFFF90F83D007047006C7C
:103EEC007047F0B5044687B0002867D090F8A93425
:103EFC0003F0FF021BB980F8A82404F0E1FA0323B5
:103F0C0025466E4684F8A93455F8100B01F08EFC4A
:103F1C000FCD0FC62B68271D336097E80E00206865
:103F2C0001F074FC0021206801F08AFC002123467A
:103F3C0022460126084604F1100582F828109186C5
:103F4C0001310F29C2E90E0082F8296082F82B009A
:103F5C001064A2F84800A2F84A0002F12402ECD145
:103F6C0000210A4683F86812A3F8741201310F2954
:103F7C00C3E99E2283F8692283F86B22C3F880225E
:103F8C00A3F88822A3F88A2203F12403EAD16E460F
:103F9C000FCD0FC62B68336097E80E00206801F038
:103FAC0051FC4FF0000384F824300123206884F87E
:103FBC00A93401F050FF002007B0F0BD0120FBE751
:103FCC0010B590F8A8340446012B0ED0012180F8CE
:103FDC00A81400F084FC206801F03BFF206801F07D
:103FEC001CFC002084F8A80410BD0220FCE710B5CE
:103FFC0090F8A8240446012A0BD0012280F8241042
:10400C0080F8A824006801F01EFF002084F8A804A2
:10401C0010BD0220FCE710B50446242011F0800FDF
:10402C001BBF01F07F0100FB014100FB0141283166
:10403C0008BF01F51A710A61CB7094F8A834012BF2
:10404C0009D00123206884F8A83401F017FC002063
:10405C0084F8A80410BD0220FCE7242310B511F04D
:10406C00800F1ABF01F07F0103FB010103FB01016B
:10407C0090F8A83414BF283101F51A71012B0446AD
:10408C0009D0012380F8A834006801F09DFD0020C0
:10409C0084F8A80410BD0220FCE72DE9F04F24277A
:1040AC0001F07F067743C119C1E99F23002307F56F
:1040BC001A790546814485B00068C1F8843236B956
:1040CC00494601F0DEFE002005B0BDE8F08F91F806
:1040DC00683230F823309BB2ADF80C30BDF80C30A0
:1040EC00580632D5B1F88A324FF0240B4FF6FE78D1
:1040FC000BFB065407F5227A07F28A27AA442F44B1
:10410C000BB1434524D10BFB065696F87232002BAB
:10411C00D9D1D6F87C32002BD5D0D6F88032002BF2
:10412C00D1D096F868122A6832F8213023F48043F3
:10413C0023F070031B041B0C83F4405343F4004323
:10414C0043F0800322F82130BDE7B1F88832CBE789
:10415C00D4F87C120029B6D0D4F880020028B2D052
:10416C004FF6FF7CBDF80C2052064BBFB4F8702202
:10417C00B4F86E22A4F88A82A4F88882634506D02B
:10418C00984205D24946286801F0E9FD9BE70023D7
:10419C002868019301F0E7FE019BD4F884221A44AD
:1041AC00C4F88422D4F87C221A44C4F87C22D4F8B3
:1041BC008022D21AC4F880221AB1D4F87822934201
:1041CC0004D2284694F8681204F0CAF994F86932BB
:1041DC007BBB94F868122A6832F8213023F0F00384
:1041EC001B051B0D43F4004343F0C00322F82130A0
:1041FC00BDF80C30002213F0400F0CBF514639466D
:10420C00D1E85F3F9BB2ADF80E30BDF80E309BB2DB
:10421C0043451ED094F868222B6833F822309BB2A9
:10422C00ADF80C30BDF80C305B0617D4B4F88832FE
:10423C0066E7012BDCD194F868122A6832F8213039
:10424C0023F0F0031B051B0D43F4404343F08003A4
:10425C00CCE7C1E8532F002BD2D1DBE7B4F88A327C
:10426C004EE7242301F00F0103FB0101B1F8840296
:10427C00704738B501F07F042421002561434418B0
:10428C0028310144C4E90F236564006801F0F9FD8D
:10429C00284638BD2DE9F7430446006801F0DDFDE2
:1042AC00020440F13B8100237E4FDFF8FC81DFF8F4
:1042BC00FC91ADF80430ADF806302068B0F844300D
:1042CC009BB21A04ADF8043040F12881BDF80460AB
:1042DC0016F00F0640F0AB80BDF80410038811F007
:1042EC0010019BB226D13B400380B0F8503094F8BB
:1042FC0028209BB203EBC20300EB4300D0F804343C
:10430C00E26BC3F3090363641344E363204604F0D4
:10431C0030F994F82430002BCFD0226C002ACCD169
:10432C0094F82430216843F08003A1F84C3084F8D1
:10433C002420C2E7ADF80630BDF806301B051FD5AA
:10434C00B0F8503094F868229BB203EBC20300EB38
:10435C004303D3F80C34B4F86C22C3F30903C4F848
:10436C00843204F2AC4101F0FEFD22682046138831
:10437C0023F070031B051B0D138004F0EBF89CE776
:10438C00BDF806301E0498D5038823F070031B0576
:10439C001B0D0380B0F8503094F868229BB203EBED
:1043AC00C20300EB4303D3F80C34C3F30903C4F882
:1043BC00843263B1B4F86C22D4F87C1201F0D3FDD2
:1043CC00D4F87C32D4F884221344C4F87C32002113
:1043DC00204604F0C5F82268D4F87852B2F8501090
:1043EC003E2D89B201F1060102F5806017D9C5F3A3
:1043FC004F13ED0604BF03F1FF339BB249EA83234D
:10440C009BB240F8113013889BB203EA080383F483
:10441C00405343F4004343F0800313804DE7C5F34E
:10442C004F03EE0744BF01339BB29B02E8E730F821
:10443C0026309BB2ADF80630BDF806301D0440F1B5
:10444C004781242230F8263002FB064223F0700309
:10445C001B051B0D20F8263092F8723200F5806592
:10446C0033BBB0F8503092F868129BB2063303EBB2
:10447C00C10355F81350C5F30905002D00F009814F
:10448C00B2F86CE22421714304EB010CDCF88032AD
:10449C009D4240F2788101F51A71214401F05FFCD4
:1044AC003CE000BF0F8FFFFF8FBFFFFF0080FFFFBF
:1044BC00BDF80630590640F1C980B2F88AC2BCFA80
:1044CC008CFC4FEA5C1C242101FB064191F86832FC
:1044DC00D1F880224FEAC30EB0F850309BB273442F
:1044EC00BCF1000F00F03281063355F81350B1F8CF
:1044FC0070E2C5F309053AB1D1F87C3223B1BDF8AD
:10450C0006305A0600F1AA804FF6FF73002D08BF43
:10451C001D46242303FB0646A6F88A52206801F0A8
:10452C009CFC43050FD522682046B2F8443023F496
:10453C0080631B041B0CA2F8443004F026F8002105
:10454C002046FFF754FD206801F087FC470408D58E
:10455C002268B2F8443023F480431B041B0CA2F8ED
:10456C004430206801F079FC860408D52268B2F842
:10457C00443023F400531B041B0CA2F84430206875
:10458C0001F06BFCC5041CD522682046B2F8403003
:10459C0023F004031B041B0CA2F84030B2F840308B
:1045AC0023F008031B041B0CA2F8403004F00AF89B
:1045BC002268B2F8443023F480531B041B0CA2F87D
:1045CC004430206801F049FC00051DD52068B0F886
:1045DC0040309BB243F00803A0F84030B0F84430B0
:1045EC0023F400631B041B0CA0F84430B0F84030DB
:1045FC009BB243F00403A0F8403001F02EFCC10440
:10460C0002D4204603F0CEFF206801F026FC820580
:10461C000BD522682046B2F8443023F400731B04F7
:10462C001B0CA2F8443003F0ACFF206801F015FC21
:10463C00C30508D52268B2F8443023F480731B04F8
:10464C001B0CA2F8443003B0BDE8F083B2F888C26A
:10465C00BCF1000C18BF4FF0010C34E70023A1F89B
:10466C008832002D7FF40EAF242303FB064393F80E
:10467C00722272B193F86812226832F8213023F05A
:10468C00F0031B051B0D43F4004343F0C00322F859
:10469C002130242303FB0643D3F884222A44C3F895
:1046AC008422D3F87C222A44C3F87C22D3F88022BB
:1046BC00521BC3F880221AB1D3F87822954269D2E2
:1046CC00242303FB0643204693F8681203F048FFAB
:1046DC00BDF806301D067FF5F0AD2420236800FBE5
:1046EC00064033F8262003F5806192B23A4023F855
:1046FC00262090F83220002A61D1B3F8502090F88F
:10470C00285092B2023202EBC50251F81220C2F3C9
:10471C0009024264242202FB0646B3F8503096F894
:10472C0028209BB2023303EBC20351F81320F36B26
:10473C00C2F3090272641A44336C204696F82810AE
:10474C00F263002B61D103F014FFB6E5023355F888
:10475C001350B1F86EE2C5F3090532B1D1F87C32D1
:10476C001BB1BDF806305B060AD54FF6FF73002D62
:10477C0008BF1D46242303FB0646A6F88852CDE647
:10478C00A1F88AC26DE72B467246DCF87C1201F068
:10479C00EAFB69E793F87222002A99D193F8681220
:1047AC00226832F821309BB203EA080383F44053A9
:1047BC0043F4004343F0800322F8213088E790F85B
:1047CC00282033F82250D000B3F8502092B2024483
:1047DC0068064FF0240048BF023200FB064058BF69
:1047EC00063251F81220C2F30902426490F82800F4
:1047FC0033F8202022F0F0021205120D42F4404250
:10480C0042F0800223F8202084E7FFF732FD54E5C4
:10481C0038B50D46242311F0800F0DBF03FB0503A3
:10482C0001F07F0103FB010103F51A714FF0010345
:10483C0018BF28318B7090F8A82404469A420FD0E8
:10484C0080F8A834006801F08AFA6B0604D120685D
:10485C0004F2AC4101F005FB002084F8A80438BD3B
:10486C000220FCE738B52423002511F0800F1BBF74
:10487C0001F07F0103FB010103FB0101283108BF9B
:10488C0001F51A718D7090F8A8340446012B09D0EB
:10489C00012380F8A834006801F093FA284684F8C4
:1048AC00A85438BD0220FCE710B5242411F0800F69
:1048BC001BBF01F07F0104FB010004FB0100283049
:1048CC0008BF00F51A7099B21AB982728180002063
:1048DC0010BD01221B0C8272C1800381F7E7704767
:1048EC002DE9F341054638B30368DB0710D42B6878
:1048FC009F075ED42B68190700F195802B685A0727
:10490C0000F1BF80E869002840F02C81002029E0EC
:10491C008F4C636803F00C03042B07D0636803F01F
:10492C000C03082B0AD16368DE0307D523689C03AC
:10493C00DDD56B68002BDAD1012013E06B68B3F581
:10494C00803F12D1236843F480332360FEF736F99D
:10495C00064623689803CAD4FEF730F9801B6428F6
:10496C00F7D9032002B0BDE8F0819BB9236823F48A
:10497C0080332360236823F480232360FEF71EF921
:10498C00064623689903B2D5FEF718F9801B6428F4
:10499C00F7D9E6E7B3F5A02F236803D143F48023BE
:1049AC002360CFE723F480332360236823F4802330
:1049BC00CBE7674C636813F00C0F07D0636803F008
:1049CC000C03082B10D16368DA030DD423689B0702
:1049DC0002D52B69012BAFD123686A6923F0F80348
:1049EC0043EAC203236085E72A695A4B6AB1012264
:1049FC001A60FEF7E3F8064623689F07ECD4FEF72F
:104A0C00DDF8801B0228F7D9ABE71A60FEF7D6F861
:104A1C000646236898077FF56DAFFEF7CFF8801B2D
:104A2C000228F6D99DE7AA69494E4B4BDAB101220F
:104A3C001A60FEF7C3F80446736A9B070DD54FF452
:104A4C00FA52464B1B68B3FBF2F3019300BF019B78
:104A5C005A1E0192002BF9D150E7FEF7AFF8001B5C
:104A6C000228E9D97DE71A60FEF7A8F80446736AB4
:104A7C009F077FF543AFFEF7A1F8001B0228F6D97C
:104A8C006FE7334CE369D80024D40127E36943F082
:104A9C008053E361E36903F080530093009B304E35
:104AAC003368D90518D5EB68012B26D1236A43F05E
:104ABC0001032362FEF782F841F288380646236A26
:104ACC009B073FD5002F3FF41DAFE36923F08053C4
:104ADC00E36117E70027E2E7336843F48073336040
:104AEC00FEF76CF880463368DA05DCD4FEF766F81E
:104AFC00A0EB08006428F6D933E7ABB9236A41F27E
:104B0C00883823F001032362236A23F00403236211
:104B1C00FEF754F80646236A9807D3D5FEF74EF8ED
:104B2C00801B4045F7D91CE7052B236A03D143F0C2
:104B3C0004032362BAE723F001032362236A23F000
:104B4C000403B6E7FEF73AF8801B4045B7D908E7EF
:104B5C00001002400000424280044242200000202B
:104B6C00007000402A4B5A681C4602F00C02082ABE
:104B7C003DD00023274E022833602BD1FEF71EF8C0
:104B8C000746236899011FD42B6AB3F5803F05D1E2
:104B9C006268A96822F400320A436260696A62683A
:104BAC000B4322F474121343636001233360FEF74A
:104BBC0005F8054623689A013FF5A8AEFDF7FEFF00
:104BCC00401B0228F6D9CCE6FDF7F8FFC01B0228E3
:104BDC00D7D9C6E6FDF7F2FF054623689B017FF5A2
:104BEC0095AEFDF7EBFF401B0228F6D9B9E601287C
:104BFC003FF4B8AE5B682A6A03F4803191427FF4CB
:104C0C009BAE6A6A03F4701393423FF47FAE93E653
:104C1C00001002406000424230B5184B87B002AC25
:104C2C0003F11005224618685968083303C2AB42D9
:104C3C001446F7D140F201231149ADF804304B680A
:104C4C0003F00C02082A17D1C3F3834206A80244CE
:104C5C00DB0312F8102C0CD54B680A48C3F3404305
:104C6C00504306AA134413F8143CB0FBF3F007B0FE
:104C7C0030BD05485043FAE70248F8E7E8910008D0
:104C8C000010024000127A0000093D002DE9F041AD
:104C9C000D46044610B90120BDE8F081444A136862
:104CAC0003F007038B4228D321688E0730D4CA0740
:104CBC0043D43F4A136803F00703AB4265D822681C
:104CCC003C4D12F0040F6CD1130706D56B682269AA
:104CDC0023F4605343EAC2036B60FFF79DFF6B68DC
:104CEC00354AC3F30313D35CD840344B1860344BB0
:104CFC001868FDF721FF0020CEE7136823F00703A7
:104D0C000B431360136803F007038B42C3D1CBE74B
:104D1C00284B11F0040F1EBF5A6842F4E0625A602F
:104D2C00080742BF5A6842F460525A605A68A06839
:104D3C0022F0F00202435A60B9E762681D4E012A64
:104D4C0033681AD113F4003FA5D0736841F2883848
:104D5C0023F0030313437360FDF730FF07467368BA
:104D6C00626803F00C03B3EB820FA2D0FDF726FFB1
:104D7C00C01B4045F3D903208EE7022A02D113F061
:104D8C00007FE1E713F0020FDEE7136823F007035F
:104D9C002B431360136803F00703AB427FF47BAF24
:104DAC008DE76B68E16823F4E0630B436B608BE782
:104DBC000020024000100240A892000820000020B1
:104DCC0008000020044B054A5B68C3F30223D35C44
:104DDC00034A1068D840704700100240B89200088F
:104DEC0020000020044B054A5B68C3F3C223D35C4C
:104DFC00034A1068D840704700100240B89200086F
:104E0C002000002003682DE9F341D907054620D581
:104E1C00354CE369DA0032D40127E36943F080535F
:104E2C00E361E36903F080530193019B2F4E3368D8
:104E3C00DB0526D5236A13F4407336D1236A6A68DE
:104E4C0023F44073134323621FB1E36923F08053AF
:104E5C00E3612868830706D52349AB684A6822F4C6
:104E6C0040421A434A6010F010001BD01E4AE968F9
:104E7C005368002023F480030B43536012E0002797
:104E8C00D4E7336843F480733360FDF797FE8046B4
:104E9C003368D805CED4FDF791FEA0EB080064284A
:104EAC00F6D9032002B0BDE8F0816A6802F44072C2
:104EBC009A42C3D001200E4A236A1060002023F4CA
:104ECC00407110602162D907B8D5FDF777FE41F229
:104EDC0088380646236A9A07B0D4FDF76FFE801B0C
:104EEC004045F7D9DDE700BF0010024000700040DC
:104EFC0040044242036810B51A680446920708D56C
:104F0C005B689B0705D501F013FB6FF00202236869
:104F1C005A604FF40032024B5A610123637410BD86
:104F2C0000040140F8B504460E4615461F4622689B
:104F3C00936836EA030301D000202DE06B1CF7D0F8
:104F4C00FDF73CFEC01B8542F1D823685A6822F05D
:104F5C00E0025A606268B2F5827F0AD1A268B2F5AB
:104F6C00004F02D0B2F5806F03D11A6822F04002D4
:104F7C001A60A26AB2F5005F07D11A6822F40052D7
:104F8C001A601A6842F400521A60012384F85130F6
:104F9C000023032084F85030F8BD10B513460A46A0
:104FAC0080210446FFF7BEFF20B10320636D43F060
:104FBC002003636510BD704710B50446002834D03B
:104FCC000023836290F8513003F0FF021BB980F884
:104FDC005020FFF7F0FF0223226884F85130136849
:104FEC00A16923F040031360D4E901300343E06866
:104FFC0003432069034360690343E0690343206A68
:10500C000343A06A034301F40070090C034301F04D
:10501C00040113605160D369002023F40063D36151
:10502C000123606584F8513010BD0120FCE72DE9A7
:10503C00F7431E4690F850300446012B0D4691461E
:10504C00DDF8288000F0E080012380F85030FDF777
:10505C00B5FD94F851300746012B6268D9B20AD0DD
:10506C00B2F5827F40F0CE80A368002B40F0CA805E
:10507C00042940F0C780002D3FD0B9F1000F3CD07F
:10508C00002E3AD094F85130C4F83890042B1CBF41
:10509C00052384F8513000236365C4E91033236879
:1050AC00E687E6861968A687490658BF19682563FE
:1050BC0058BF41F04001A68658BF1960E168B1F5B0
:1050CC00006F51D10AB1012E07D135F8022BDA60ED
:1050DC00E38E2563013B9BB2E3860125E38E9BB2F5
:1050EC006BB9E38F9BB253B93A4641462046FFF762
:1050FC0054FF00287BD02023636501202BE021681E
:10510C008B689A070DD5E38E9BB253B14DB1002538
:10511C00236B33F8022BCA602363E38E013B9BB2F3
:10512C00E3868A6812F001020CD0E38F9BB24BB17C
:10513C001546C968A36B23F8021BA363E38F013BDD
:10514C009BB2E387FDF73AFDC01B4045C6D3B8F1CF
:10515C00FF3FC3D00320012384F85130002384F88F
:10516C00503003B0BDE8F0830AB1012E08D12A7883
:10517C001A73236B01332363E38E013B9BB2E386EB
:10518C000125E38E9BB21BB9E38F9BB2002BABD0F6
:10519C00226893689B070ED5E38E9BB25BB155B129
:1051AC000025236B1B781373236B01332363E38E6E
:1051BC00013B9BB2E3862268916811F001010DD08E
:1051CC00E38F9BB253B10D46D268A36B1A70A36BDD
:1051DC000133A363E38F013B9BB2E387FDF7EEFC46
:1051EC00C01B4045CDD3B8F1FF3FCAD0B2E7A3688E
:1051FC00002BB0D123680190DA6801929B6801936F
:10520C00019BA8E70220A6E70220AAE77047704797
:10521C00036810B51A69044691070ED5DA6892072F
:10522C000BD56FF002021A61012202779B699B0772
:10523C0077D002F031F80023237723681A695007DE
:10524C0010D5DA6851070DD56FF004021A610222ED
:10525C0022779B69204613F4407F68D002F01CF83B
:10526C000023237723681A6912070FD5DA68100711
:10527C000CD56FF008021A6104222277DB692046F4
:10528C0099075AD002F008F80023237723681A698B
:10529C00D20610D5DA68D0060DD56FF010021A615F
:1052AC0008222277DB69204613F4407F4BD001F0B3
:1052BC00F3FF0023237723681A69D10708D5DA682E
:1052CC00D20705D56FF0010220461A6101F0E8FF04
:1052DC0023681A69100608D5DA68110605D56FF02F
:1052EC00800220461A6100F088F823681A69520679
:1052FC0008D5DA68500605D56FF0400220461A61D1
:10530C00FFF785FF23681A69910622D5DA689206A1
:10531C001FD56FF020022046BDE810401A6100F046
:10532C006BB801F0BBFF2046FFF770FF83E701F07D
:10533C00B5FF2046FFF76AFF92E701F0AFFF20466A
:10534C00FFF764FFA0E701F0A9FF2046FFF75EFF1F
:10535C00AFE710BD1A4A036890420AD0B0F1804FF3
:10536C0007D0A2F59432904203D002F580629042AD
:10537C0015D14A6823F070031343114A90420AD0A6
:10538C00B0F1804F07D0A2F59432904203D002F5D1
:10539C008062904203D1CA6823F4407313434A6974
:1053AC0023F08003134303608B68C3620B68836232
:1053BC00034B984204BF0B6903630123436170479D
:1053CC00002C014010B50446A0B190F83D3003F01C
:1053DC00FF021BB980F83C2001F0A4F902232068DD
:1053EC0084F83D30211DFFF7B5FF0123002084F820
:1053FC003D3010BD0120FCE7704770470368DA6848
:10540C0022F49072DA605A6922F001025A61202368
:10541C0080F83A307047000038B505460368C1681B
:10542C001A69192422F440520A431A6182680069ED
:10543C00D9680243686921F4B05121F00C01024390
:10544C000A43DA605A69A96922F440720A435A6124
:10545C000D4A934214D1FFF7C5FC44436B68642298
:10546C009B00B4FBF3F4B4FBF2F102FB11431B0100
:10547C003233B3FBF2F3286803EB0113836038BDBE
:10548C00FFF7A0FCE9E700BF00380140704710B5FA
:10549C00044640B390F8393003F0FF021BB980F892
:1054AC003820FFF7F3FF2423226884F83930D368BF
:1054BC00204623F40053D360FFF7AEFF236800208F
:1054CC001A6922F490421A615A6922F02A025A612E
:1054DC00DA6842F40052DA602023E06384F8393051
:1054EC0084F83A3010BD0120FCE710B5044660B3D7
:1054FC0090F8393003F0FF021BB980F83820FFF721
:10550C00C5FF2423226884F83930D368204623F45D
:10551C000053D360FFF780FF236800201A6922F440
:10552C0090421A615A6922F022025A615A6942F079
:10553C0008025A61DA6842F40052DA602023E06310
:10554C0084F8393084F83A3010BD0120FCE790F82B
:10555C003930202B18D1A9B1A2B190F83830012BD9
:10556C0012D0C28400238284212201620168C363A9
:10557C0080F8383080F83920CA68184642F080022A
:10558C00CA607047012070470220704790F83A308B
:10559C00202B20D1E9B1E2B190F83830012B1AD090
:1055AC00C285828500232222C36380F83A200268D8
:1055BC0080F838308162D168184641F48071D1602E
:1055CC00516941F001015161D16841F02001D16074
:1055DC007047012070470220704710B590F83A30A0
:1055EC00222B33D181680469B1F5805F836A02682C
:1055FC0023D15268ECB9C2F3080223F8022B836260
:10560C00C48D013CA4B2C4858CB90368DA6822F05D
:10561C002002DA60DA6822F48072DA605A6922F0C9
:10562C0001025A61202380F83A3001F0F7F900208A
:10563C000DE0D2B223F8012BE1E7591C52688162CC
:10564C000CB91A70DCE702F07F02FAE7022010BDF9
:10565C00036870B51A6804461607D9685D6907D1E6
:10566C00960659D58D0657D5BDE87040FFF7B5BFE6
:10567C0005F0010001F4907505434DD0D60705D512
:10568C00CD0542BFE36B43F00103E363530704D53D
:10569C0018B1E36B43F00203E363960704D518B12A
:1056AC00E36B43F00403E363150704D518B1E36B14
:1056BC0043F00803E363E36B4BB3900604D5890610
:1056CC0002D52046FFF789FF236820465B69E56B0E
:1056DC0003F0400305F008051D4319D0FFF78EFEBB
:1056EC0023685A6952060FD55A69606B22F0400242
:1056FC005A6148B1254B4363FDF7F8FA38B1606B3A
:10570C00BDE87040436B1847204601F09DF970BD11
:10571C0001F09AF9E563FAE7160628D50D0626D5A9
:10572C0094F83920212AF2D1A168226AB1F5805F60
:10573C0018D11188C1F308015960216981B902326D
:10574C002262E28C013A92B2E284002ADFD1DA685A
:10575C0022F08002DA60DA6842F04002DA60D6E7C2
:10576C000132EDE7511C216212785A60E9E75006CC
:10577C00CDD54A06CBD5DA68204622F04002DA6055
:10578C00202384F8393001F04CF9C0E79D5700080C
:10579C0008B50023406AC385C38401F055F908BDE0
:1057AC0090F83830012B11D02423026880F839305E
:1057BC00D36823F00C0343F00803D360202380F854
:1057CC003930002380F83830184670470220704773
:1057DC0090F83830012B11D02423026880F839302E
:1057EC00D36823F00C0343F00403D360202380F828
:1057FC003930002380F83830184670470220704743
:10580C0090F8392090F83A001043704784B001A802
:10581C0080E80E0004B000207047B0F840309BB216
:10582C0043F43F43A0F8403000207047B0F84030BC
:10583C0023F474535B045B0CA0F8403000207047D9
:10584C000020704784B010B5044603A880E80E0011
:10585C0000200123A4F84030A4F84000A4F8440030
:10586C00A4F85000B4F840309BB243F43F43A4F882
:10587C004030BDE8104004B07047000070B5CB78E4
:10588C000A78032B0FD8DFE803F00266525B30F87E
:10589C00223023F4EC4323F070031B041B0C43F461
:1058AC00007320F8223040F60F720C7830F8243058
:1058BC001340234343F4004343F0800320F8243087
:1058CC008C7A0D7800F58063002C40F092808C88E7
:1058DC004E786408012E4FEA44044FEAC50545D1C1
:1058EC00B0F85060B6B2354443F815400C7830F837
:1058FC0024305D0608D530F824301A4042F40042BA
:10590C0042F0C00220F824200A7830F8223023F428
:10591C00E04323F040031B041B0C83F0200343F4EF
:10592C00004343F0800320F82230002070BD30F893
:10593C00223023F4EC4323F070031B041B0CB0E760
:10594C0030F8223023F4EC4323F070031B041B0CBF
:10595C0043F4C063A5E730F8223023F4EC4323F082
:10596C0070031B041B0C43F480639AE7B0F85020BF
:10597C0092B22A44043243F81240B0F850400D69F8
:10598C000A78A4B206343E2D04EBC20429D9C5F31F
:10599C004F16EA0604BF06F1FF3296B2894A42EA74
:1059AC00862292B243F814200A7830F822305B0435
:1059BC000BD530F8223023F0F0031B051B0D43F4FC
:1059CC00404343F0800320F822300A7830F822302C
:1059DC0023F4804323F070031B041B0C83F400534B
:1059EC009DE7C5F34F02ED0744BF013292B292021C
:1059FC00D7E730F8254024F4F8742405240D44F43A
:105A0C00014444F0800420F82540B0F850400D7853
:105A1C00A4B204EBC504CD886D086D0043F8145096
:105A2C00B0F850400D78A4B2043404EBC5040D89D1
:105A3C006D086D0043F814504C780D78012C3AD158
:105A4C0030F825305E0408D530F82530134043F487
:105A5C00404343F0800320F825300A7830F8223098
:105A6C005C060BD530F8223023F0F0031B051B0D20
:105A7C0043F4004343F0C00320F8223048F2800284
:105A8C000C7830F8243023F4E04323F040031B045B
:105A9C001B0C83F03003134320F82430097830F8C2
:105AAC00213023F4804323F070031B041B0C13439D
:105ABC0020F8213039E7ACB9B0F85040A4B2023428
:105ACC0004EBC5040D693E2D60D9C5F34F16EA06EB
