:020000040800F2
:100000000050002089680008D1680008D168000805
:10001000D1680008D1680008D1680008000000001D
:10002000000000000000000000000000D16800088F
:10003000D168000800000000D16800086B5E00086D
:10004000D1680008D1680008D1680008D1680008AC
:10005000D1680008D1680008396700083F670008C8
:10006000456700084B67000851670008D168000821
:10007000D1680008D1680008D1680008D16800087C
:10008000D1680008D1680008D1680008D16800086C
:10009000AD7E0008D1680008D168000857670008E5
:1000A000D1680008816B0008D1680008956B0008D2
:1000B000996B0008AD6B0008C16B0008F5190008CA
:1000C000011A00080D1A0008191A0008D168000862
:1000D000D16800085166000869660008816600085A
:1000E0006D67000859630008B97E00080000000031
:1000F0000000000000000000000000000000000000
:0C01000000000000000000005FF808F1A3
:10010C00034613F8012B002AFBD1181A013870474B
:10011C0081F0004102E000BF83F0004330B54FEAAC
:10012C0041044FEA430594EA050F08BF90EA020F19
:10013C001FBF54EA000C55EA020C7FEA645C7FEAAC
:10014C00655C00F0E2804FEA5454D4EB5555B8BFCF
:10015C006D420CDD2C4480EA020281EA030382EA40
:10016C00000083EA010180EA020281EA0303362DD2
:10017C0088BF30BD11F0004F4FEA01314FF4801CA5
:10018C004CEA113102D0404261EB410113F0004FB7
:10019C004FEA03334CEA133302D0524263EB43036E
:1001AC0094EA050F00F0A780A4F10104D5F1200E0C
:1001BC000DDB02FA0EFC22FA05F2801841F1000167
:1001CC0003FA0EF2801843FA05F359410EE0A5F13B
:1001DC0020050EF1200E012A03FA0EFC28BF4CF06C
:1001EC00020C43FA05F3C01851EBE37101F0004522
:1001FC0007D54FF0000EDCF1000C7EEB00006EEB2F
:10020C000101B1F5801F1BD3B1F5001F0CD34908B8
:10021C005FEA30004FEA3C0C04F101044FEA44520F
:10022C0012F5800F80F09A80BCF1004F08BF5FEA96
:10023C00500C50F1000041EB045141EA050130BD76
:10024C005FEA4C0C404141EB0101013C28BFB1F588
:10025C00801FE9D291F0000F04BF01460020B1FAD3
:10026C0081F308BF2033A3F10B03B3F120020CDAA6
:10027C000C3208DD02F1140CC2F10C0201FA0CF084
:10028C0021FA02F10CE002F11402D8BFC2F1200CE9
:10029C0001FA02F120FA0CFCDCBF41EA0C0190409F
:1002AC00E41AA2BF01EB0451294330BD6FEA0404E8
:1002BC001F3C1CDA0C340EDC04F11404C4F12002D3
:1002CC0020FA04F001FA02F340EA030021FA04F3E5
:1002DC0045EA030130BDC4F10C04C4F1200220FA3C
:1002EC0002F001FA04F340EA0300294630BD21FA7A
:1002FC0004F0294630BD94F0000F83F4801306BF40
:10030C0081F480110134013D4EE77FEA645C18BF33
:10031C007FEA655C29D094EA050F08BF90EA020FCA
:10032C0005D054EA000C04BF1946104630BD91EAC2
:10033C00030F1EBF0021002030BD5FEA545C05D1C5
:10034C004000494128BF41F0004130BD14F5800404
:10035C003CBF01F5801130BD01F0004545F0FE4178
:10036C0041F470014FF0000030BD7FEA645C1ABFAD
:10037C00194610467FEA655C1CBF0B46024650EAE4
:10038C00013406BF52EA033591EA030F41F4002110
:10039C0030BD00BF90F0000F04BF0021704730B596
:1003AC004FF4806404F132044FF000054FF000016B
:1003BC0050E700BF90F0000F04BF0021704730B52C
:1003CC004FF4806404F1320410F0004548BF404201
:1003DC004FF000013EE700BF42004FEAE2014FEA56
:1003EC0031014FEA02701FBF12F07F4393F07F4F31
:1003FC0081F06051704732F07F4208BF704793F034
:10040C007F4F04BF41F40021704730B54FF4607446
:10041C0001F0004521F000411CE700BF50EA010249
:10042C0008BF704730B54FF000050AE050EA0102F2
:10043C0008BF704730B511F0004502D5404261EB62
:10044C0041014FF4806404F132045FEA915C3FF4A3
:10045C00D8AE4FF003025FEADC0C18BF03325FEA40
:10046C00DC0C18BF033202EBDC02C2F1200300FAF1
:10047C0003FC20FA02F001FA03FE40EA0E0021FA16
:10048C0002F11444BDE600BF70B54FF0FF0C4CF404
:10049C00E06C1CEA11541DBF1CEA135594EA0C0FB6
:1004AC0095EA0C0F00F0DEF82C4481EA030621EAF1
:1004BC004C5123EA4C5350EA013518BF52EA03352C
:1004CC0041F4801143F4801338D0A0FB02CE4FF0DE
:1004DC000005E1FB02E506F00042E0FB03E54FF00E
:1004EC000006E1FB03569CF0000F18BF4EF0010E06
:1004FC00A4F1FF04B6F5007F64F5407404D25FEA02
:10050C004E0E6D4146EB060642EAC62141EA5551B4
:10051C004FEAC52040EA5E504FEACE2EB4F1FD0CF6
:10052C0088BFBCF5E06F1ED8BEF1004F08BF5FEA74
:10053C00500E50F1000041EB045170BD06F0004626
:10054C0046EA010140EA020081EA0301B4EB5C04D3
:10055C00C2BFD4EB0C0541EA045170BD41F48011CB
:10056C004FF0000E013C00F3AB8014F1360FDEBFF0
:10057C00002001F0004170BDC4F10004203C35DACC
:10058C000C341BDC04F11404C4F1200500FA05F34F
:10059C0020FA04F001FA05F240EA020001F00042F0
:1005AC0021F0004110EBD37021FA04F642EB060166
:1005BC005EEA430E08BF20EAD37070BDC4F10C0490
:1005CC00C4F1200500FA04F320FA05F001FA04F254
:1005DC0040EA020001F0004110EBD37041F1000140
:1005EC005EEA430E08BF20EAD37070BDC4F120054B
:1005FC0000FA05F24EEA020E20FA04F301FA05F2B3
:10060C0043EA020321FA04F001F0004121FA04F25A
:10061C0020EA020000EBD3705EEA430E08BF20EA2A
:10062C00D37070BD94F0000F0FD101F00046400064
:10063C0041EB010111F4801F08BF013CF7D041EAE6
:10064C00060195F0000F18BF704703F000465200EA
:10065C0043EB030313F4801F08BF013DF7D043EABB
:10066C000603704794EA0C0F0CEA135518BF95EA71
:10067C000C0F0CD050EA410618BF52EA4306D1D1F8
:10068C0081EA030101F000414FF0000070BD50EA17
:10069C00410606BF1046194652EA430619D094EAA1
:1006AC000C0F02D150EA013613D195EA0C0F05D18B
:1006BC0052EA03361CBF104619460AD181EA0301DF
:1006CC0001F0004141F0FE4141F470014FF0000097
:1006DC0070BD41F0FE4141F4780170BD70B54FF032
:1006EC00FF0C4CF4E06C1CEA11541DBF1CEA1355B2
:1006FC0094EA0C0F95EA0C0F00F0A7F8A4EB050494
:10070C0081EA030E52EA03354FEA013100F088808A
:10071C004FEA03334FF0805545EA131343EA126353
:10072C004FEA022245EA111545EA10654FEA002608
:10073C000EF000419D4208BF964244F1FD0404F5C1
:10074C00407402D25B084FEA3202B61A65EB03051D
:10075C005B084FEA32024FF480104FF4002CB6EBDA
:10076C00020E75EB030E22BFB61A754640EA0C005A
:10077C005B084FEA3202B6EB020E75EB030E22BF9A
:10078C00B61A754640EA5C005B084FEA3202B6EBDB
:10079C00020E75EB030E22BFB61A754640EA9C009A
:1007AC005B084FEA3202B6EB020E75EB030E22BF6A
:1007BC00B61A754640EADC0055EA060E18D04FEA28
:1007CC00051545EA16754FEA06164FEAC30343EAC8
:1007DC0052734FEAC2025FEA1C1CC0D111F4801F95
:1007EC000BD141EA00014FF000004FF0004CB6E78E
:1007FC0011F4801F04BF01430020B4F1FD0C88BF2D
:10080C00BCF5E06F3FF6AFAEB5EB030C04BFB6EB37
:10081C00020C5FEA500C50F1000041EB045170BD2A
:10082C000EF0004E4EEA113114EB5C04C2BFD4EB57
:10083C000C0541EA045170BD41F480114FF0000EDB
:10084C00013C90E645EA060E8DE60CEA135594EA57
:10085C000C0F08BF95EA0C0F3FF43BAF94EA0C0F5A
:10086C000AD150EA01347FF434AF95EA0C0F7FF4CF
:10087C0025AF104619462CE795EA0C0F06D152EA23
:10088C0003353FF4FDAE1046194622E750EA410607
:10089C0018BF52EA43067FF4C5AE50EA41047FF418
:1008AC000DAF52EA43057FF4EBAE12E74FF0FF3C7D
:1008BC0006E000BF4FF0010C02E000BF4FF0010C4E
:1008CC004DF804CD4FEA410C7FEA6C5C4FEA430CC7
:1008DC0018BF7FEA6C5C1BD001B050EA410C0CBF16
:1008EC0052EA430C91EA030F02BF90EA020F002078
:1008FC00704710F1000F91EA030F58BF994208BFDF
:10090C0090422CBFD8176FEAE37040F0010070479B
:10091C004FEA410C7FEA6C5C02D150EA013C07D1F2
:10092C004FEA430C7FEA6C5CD6D152EA033CD3D03D
:10093C005DF8040B704700BF8446104662468C4637
:10094C001946634600E000BF01B5FFF7B7FF00286A
:10095C0048BF10F1000F01BD4DF808EDFFF7F4FF93
:10096C000CBF012000205DF808FB00BF4DF808ED1E
:10097C00FFF7EAFF34BF012000205DF808FB00BF41
:10098C004DF808EDFFF7E0FF94BF012000205DF863
:10099C0008FB00BF4DF808EDFFF7CEFF94BF012018
:1009AC0000205DF808FB00BF4DF808EDFFF7C4FF11
:1009BC0034BF012000205DF808FB00BF4FEA410C5A
:1009CC007FEA6C5C02D150EA013C0AD14FEA430C3D
:1009DC007FEA6C5C02D152EA033C02D14FF000007A
:1009EC0070474FF0010070474FEA410212F50012B8
:1009FC0015D211D56FF47873B3EB625212D94FEA5A
:100A0C00C12343F0004343EA505311F0004F23FA43
:100A1C0002F018BF404270474FF00000704750EA98
:100A2C00013005D111F0004008BF6FF00040704755
:100A3C004FF00000704700BF4A0011D212F50012AF
:100A4C0011D20DD56FF47873B3EB62520ED44FEA1A
:100A5C00C12343F0004343EA505323FA02F070479A
:100A6C004FF00000704750EA013002D14FF0FF30D8
:100A7C0070474FF0000070474FEA4102B2F1E0437B
:100A8C0024BFB3F5001CDCF1FE5C0DD901F0004C69
:100A9C004FEAC0024CEA5070B2F1004F40EB8300B9
:100AAC0008BF20F00100704711F0804F21D113F1E5
:100ABC003872BCBF01F00040704741F480114FEA1E
:100ACC005252C2F11802C2F1200C10FA0CF320FAA7
:100ADC0002F018BF40F001004FEAC1234FEAD323C4
:100AEC0003FA0CFC40EA0C0023FA02F34FEA43032E
:100AFC00CCE77FEA625307D150EA01331EBF4FF0B7
:100B0C00FE4040F44000704701F0004040F0FE40D1
:100B1C0040F40000704700BF80F0004002E000BFCE
:100B2C0081F0004142001FBF5FEA410392EA030FCC
:100B3C007FEA226C7FEA236C6AD04FEA1262D2EB16
:100B4C001363C1BFD218414048404140B8BF5B421B
:100B5C00192B88BF704710F0004F40F4000020F0B4
:100B6C007F4018BF404211F0004F41F4000121F0CA
:100B7C007F4118BF494292EA030F3FD0A2F1010214
:100B8C0041FA03FC10EB0C00C3F1200301FA03F152
:100B9C0000F0004302D5494260EB4000B0F5000F75
:100BAC0013D3B0F1807F06D340084FEA310102F134
:100BBC000102FE2A51D2B1F1004F40EBC25008BFE6
:100BCC0020F0010040EA03007047490040EB0000B0
:100BDC00013A28BFB0F5000FEDD2B0FA80FCACF1B1
:100BEC00080CB2EB0C0200FA0CF0AABF00EBC250DE
:100BFC0052421843BCBFD0401843704792F0000FCC
:100C0C0081F4000106BF80F400000132013BB5E71E
:100C1C004FEA41037FEA226C18BF7FEA236C21D094
:100C2C0092EA030F04D092F0000F08BF08467047F9
:100C3C0090EA010F1CBF0020704712F07F4F04D1C7
:100C4C00400028BF40F00040704712F100723CBFDA
:100C5C0000F50000704700F0004343F0FE4040F404
:100C6C00000070477FEA226216BF08467FEA2363C2
:100C7C000146420206BF5FEA412390EA010F40F4AD
:100C8C00800070474FF0000304E000BF10F00043F9
:100C9C0048BF40425FEA000C08BF704743F09643E0
:100CAC0001464FF000001CE050EA010208BF7047FB
:100CBC004FF000030AE000BF50EA010208BF704782
:100CCC0011F0004302D5404261EB41015FEA010C97
:100CDC0002BF84460146002043F0B64308BFA3F18F
:100CEC008053A3F50003BCFA8CF2083AA3EBC25371
:100CFC0010DB01FA02FC634400FA02FCC2F1200290
:100D0C00BCF1004F20FA02F243EB020008BF20F0C6
:100D1C000100704702F1200201FA02FCC2F120022C
:100D2C0050EA4C0021FA02F243EB020008BF20EA21
:100D3C00DC7070474FF0FF0C1CEAD0521EBF1CEA4F
:100D4C00D15392EA0C0F93EA0C0F6FD01A4480EA3D
:100D5C00010C400218BF5FEA41211ED04FF0006326
:100D6C0043EA501043EA5111A0FB01310CF0004052
:100D7C00B1F5000F3EBF490041EAD3715B0040EA78
:100D8C00010062F17F02FD2A1DD8B3F1004F40EB48
:100D9C00C25008BF20F00100704790F0000F0CF01B
:100DAC00004C08BF49024CEA502040EA51207F3ADF
:100DBC00C2BFD2F1FF0340EAC250704740F40000BA
:100DCC004FF00003013A5DDC12F1190FDCBF00F0AB
:100DDC0000407047C2F10002410021FA02F1C2F159
:100DEC00200200FA02FC5FEA310040F1000053EAF5
:100DFC004C0308BF20EADC70704792F0000F00F043
:100E0C00004C02BF400010F4000F013AF9D040EA48
:100E1C000C0093F0000F01F0004C02BF490011F4DC
:100E2C00000F013BF9D041EA0C018FE70CEAD153DA
:100E3C0092EA0C0F18BF93EA0C0F0AD030F0004C5A
:100E4C0018BF31F0004CD8D180EA010000F000400E
:100E5C00704790F0000F17BF90F0004F084691F0CC
:100E6C00000F91F0004F14D092EA0C0F01D1420206
:100E7C000FD193EA0C0F03D14B0218BF084608D1CF
:100E8C0080EA010000F0004040F0FE4040F4000019
:100E9C00704740F0FE4040F4400070474FF0FF0CAC
:100EAC001CEAD0521EBF1CEAD15392EA0C0F93EAF3
:100EBC000C0F69D0A2EB030280EA010C49024FEA45
:100ECC00402037D04FF0805343EA111143EA1013FE
:100EDC000CF000408B4238BF5B0042F17D024FF4B6
:100EEC00000C8B4224BF5B1A40EA0C00B3EB510F91
:100EFC0024BFA3EB510340EA5C00B3EB910F24BF7A
:100F0C00A3EB910340EA9C00B3EBD10F24BFA3EBFE
:100F1C00D10340EADC001B0118BF5FEA1C1CE0D1C6
:100F2C00FD2A3FF650AF8B4240EBC25008BF20F079
:100F3C00010070470CF0004C4CEA50207F32C2BFCD
:100F4C00D2F1FF0340EAC250704740F400004FF06A
:100F5C000003013A37E792F0000F00F0004C02BF9B
:100F6C00400010F4000F013AF9D040EA0C0093F065
:100F7C00000F01F0004C02BF490011F4000F013BBF
:100F8C00F9D041EA0C0195E70CEAD15392EA0C0F27
:100F9C0008D142027FF47DAF93EA0C0F7FF470AF5F
:100FAC00084676E793EA0C0F04D14B023FF44CAFA2
:100FBC0008466EE730F0004C18BF31F0004CCAD137
:100FCC0030F000427FF45CAF31F000437FF43CAF73
:100FDC005FE700BF7BB972B90029BEBF00204FF09C
:100FEC00004106E008BF00281CBF6FF000414FF025
:100FFC00FF3000F03FB8ADF1080C6DE904CE0029CC
:10100C0009DB002B1ADB07F03FFBDDF804E0DDE920
:10101C00022304B07047404261EB4101002B1BDB03
:10102C0007F032FBDDF804E0DDE9022304B04042B6
:10103C0061EB4101524263EB43037047524263EB55
:10104C00430307F021FBDDF804E0DDE9022304B0E3
:10105C00404261EB41017047524263EB430307F09E
:10106C0013FBDDF804E0DDE9022304B0524263EB2C
:10107C0043037047704700BF10B5054C237833B954
:10108C00044B13B10448AFF300800123237010BD4F
:10109C0008020020000000005889000808B5034B26
:1010AC001BB103490348AFF3008008BD00000000EA
:1010BC000C0200205889000808B54FF4E1310548AE
:1010CC0005F092FFBDE808407621034A034801F081
:1010DC00C9B800BF5405002078020020240200206B
:1010EC0073B51D4C1D4E1E49204605F07DFD304646
:1010FC0001F0DCF8FFF770F9012502460B4620469B
:10110C00009505F073FE1749204605F06DFD30463D
:10111C0001F02EFAFFF760F9009502460B462046C7
:10112C0005F064FE1049204605F05EFD304601F0E6
:10113C0003F90E49FFF7B2FEFFF74EF90095024690
:10114C000B46204605F052FE4FF47A7002B0BDE813
:10115C00704005F049BC00BF54050020240200205B
:10116C00708900087B890008868900080000C84245
:10117C00014800F0C4BE00BF24020020014800F06A
:10118C00C6BE00BF24020020024B1878024B1B780D
:10119C00C01A70471F0300201D030020074A08498E
:1011AC0013780978994281BF06490968C85C0133F4
:1011BC008CBF13704FF0FF30704700BF1D03002031
:1011CC001F03002030030020054B064A1B781278C1
:1011DC009A4283BF044A1268D05C4FF0FF307047CC
:1011EC001D0300201F03002030030020044B1B684C
:1011FC002BB1002203490A7003490A701847704743
:10120C00280300201E03002020030020202838BFC4
:10121C00202038B5084D04460146286807F0E0F94F
:10122C0018B1064B28601C7038BD2146BDE838400B
:10123C00034805F091B800BF340300202D030020B3
:10124C009189000837B5164B04461B788DF80710AA
:10125C00DBB1144D144A287812780130904201D930
:10126C00FFF7D4FF114B186818B90123636003B062
:10127C0030BD0F4A9DF807101378C1541378012024
:10128C000133DBB213702B70F1E701220DF1070172
:10129C00143000F09BFAB0FA80F04009E7E700BF89
:1012AC001C030020200300202D0300203403002009
:1012BC001E030020044B186820B1044B00211A783F
:1012CC0007F0E0B8704700BF300300202C0300206B
:1012DC00044B186820B1044B00211A7807F0D2B8DF
:1012EC00704700BF340300202D03002010B50024EC
:1012FC00064B1C70064B1C70FFF7DCFF054B1C707B
:10130C00054B1C70BDE81040FFF7E2BF1D03002029
:10131C001F0300201E03002020030020F8B5164BED
:10132C0005461B780F461446EBB1144E144B30781F
:10133C001B781044984201D9FFF768FF114B1B68CA
:10134C0023B901221C466A602046F8BD0E4D224688
:10135C0028783946184407F087F82B782344DBB2F9
:10136C002B703370F0E792B2143000F02FFA002893
:10137C0018BF0024E8E700BF1C0300202003002056
:10138C002D030020340300201E03002000214FF405
:10139C007A72C0E90112054A0260054A9188A0F8E8
:1013AC006C10D288A0F86E20704700BF148A000819
:1013BC00088E0008F8B500260D4604461746174B54
:1013CC001E70174B1E70FFF775FF164B1E70164BD9
:1013DC001E70FFF77DFF154BA5F133021E706B00DD
:1013EC0055425541DBB284F8A25004F11405237424
:1013FC004FF4804228460E4984F8A37000F024F97B
:10140C0094F8A2304BB928460A4900F091FA2846C4
:10141C00BDE8F840084900F084BAF8BD1D0300206F
:10142C001F0300201E030020200300201C030020AB
:10143C00A0860100F91100081D1500080A46332189
:10144C00FFF7B8BF0122054B91401A70044B054AB7
:10145C00197000231370044A137070471C0300208A
:10146C00380300201E0300202003002038B5E9B902
:10147C004FF42A03436490F8A230012B19D10E4D7E
:10148C000E4A0F492B7812680978143000F009FACB
:10149C00042828BF042044B2FFF71AFF0023094A8E
:1014AC002B701370084A1370E0B238BD4FF02A430A
:1014BC00E0E70424F8E700BF2003002034030020F9
:1014CC00380300201E0300201C0300200121FFF71D
:1014DC00CDBF000070B50B4D04462B7883420AD269
:1014EC00202838BF2024084E2146306807F078F8B1
:1014FC0010B130602C7070BD2146BDE870400348BF
:10150C0004F02ABF2C03002030030020918900082E
:10151C002DE9F047134D80462B680C46FBB1124A5F
:10152C00124F107839789146884218D3104E2046C5
:10153C00FFF7D0FF326822B94FF4D1710D4804F097
:10154C000BFF22464146306806F08EFF002389F8D7
:10155C00003020462B683C70BDE8F0471847BDE8CA
:10156C00F08700BF240300201D0300201F03002070
:10157C0030030020A98900082DE9F84F90F8A2B09B
:10158C000446BBF1010F0F46154699469DF828609D
:10159C009DF82CA008D11046FFF79CFF1F4A13683A
:1015AC0090461BB9C4F804B0002530E0BEB13946F2
:1015BC002046FFF747FF032E28BF0326013EF6B255
:1015CC00FF2E08D02368F10029FA01F120461B6890
:1015DC00C9B29847F2E700212046FFF747FFBAF15E
:1015EC00000F17D14FF42A037900D8F80020636458
:1015FC0001F0FE01ABB204F1140000F0FBF8002284
:10160C00002818BF0025064B1A70064B1D70284683
:10161C00BDE8F88F4FF02A43E6E700BF3003002007
:10162C001D0300201F03002007B501930023009326
:10163C00FFF7A2FF03B05DF804FB00000148FFF7C1
:10164C00A5BE00BF780200202DE9F3410D461646D9
:10165C001F460446002800F086805349B0F9580014
:10166C0004F058FE51498046B4F95A0004F052FE79
:10167C000146B8F1000F76D0002874D0404604F033
:10168C004FFE206000286ED0494B04F104089842AC
:10169C006CD103F5DE33DA6942F40012DA61DA69EF
:1016AC0002F400120092009A1A6942F400121A61B4
:1016BC001A6922F400121A6142F21F03A4F85C307A
:1016CC003C4BC3F800803949B4F95A0004F002FECF
:1016DC00B4F95800344904F0FDFD374823688542BD
:1016EC00636006D93548854203D93548854288BFA1
:1016FC0000203149FF238D428CBF4FF480450025DB
:10170C00C4E903570025E36194F88F302A46AB42B5
:10171C000CBF2B4640230221C4E90835A06066614A
:10172C0094F95C00A56184F8415001F053FA94F9E6
:10173C005C0001F081FA2A46022194F95D0001F067
:10174C0049FA94F95D0001F077FA404601F038FB54
:10175C0020B140F2D5211B4804F0FEFD0023236686
:10176C00022384F88D3002B0BDE8F081164B98420C
:10177C00A9D103F5DC33DA6942F48002DA61DA6963
:10178C0002F480020192019A1A6942F480021A61F1
:10179C001A6922F480021A6142F22123A4F85C3007
:1017AC00044BC3F804808EE7BC8B00088C8B0008BC
:1017BC00005400403C030020A0860100801A060063
:1017CC0040420F00348A000800580040202A30B5EF
:1017DC000ED800239CB2A24204D8D2B280F88C203E
:1017EC00002030BDCD5CC41884F86C500133F1E797
:1017FC000120F6E72DE9F34105460C4698461746BD
:10180C0001F0D0F92B6B0435214600930646434674
:10181C003A46284601F086FC044650B1002002B03E
:10182C00BDE8F08101F0BEF9841B284602F037FBBD
:10183C0030B9284602F030FB202801D0632CF1D9B6
:10184C00284602F02CFB642C07D8820605D44307EB
:10185C0005D40028E2D00420E1E70520DFE70320CF
:10186C00DDE710B564230446043001F049FB02287F
:10187C000AD0032801D068B910BD94F84130202B50
:10188C000CBF02200520F7E794F84130202B18BF3D
:10189C000620F1E794F84130202B0CBF02200420E5
:1018AC00EAE72DE9F34105460C4690461F4601F048
:1018BC0079F906463FB901222146284602B0BDE817
:1018CC00F041FFF7CEBF2B6B043521460093424607
:1018DC003B46284601F0BEFB044650B1002002B046
:1018EC00BDE8F08101F05EF9841B284602F0D7FABE
:1018FC0030B9284602F0D0FA202801D0632CF1D957
:10190C00284602F0CCFA642C07D8820605D443078B
:10191C0005D40028E2D00420E1E70520DFE703200E
:10192C00DDE720B119B14166043001F0F7BC704716
:10193C0020B119B18166043001F0F0BC7047C36866
:10194C0010B59A4204461CD171B9436E80F88910C7
:10195C0003B19847204694F8882004F168012023AD
:10196C00BDE8104001F064BC00230122C36580F87F
:10197C008920C16D0423BDE810400144683101F099
:10198C0092BC10BD10B590F889300446012B05D1DE
:10199C00C36D1BB1C16D036E68309847022384F888
:1019AC00893000232046E365BDE8104001F0B6BC49
:1019BC00C36D1F2BDEBFC36D0133C36590F8893037
:1019CC00012BDAB205D1C16D04230144683101F059
:1019DC006ABC7047002380F88830704790F88A30D2
:1019EC000BB901F09BBC7047014B186801F094BD1A
:1019FC003C030020014B186802F0B2B93C030020F4
:101A0C00014B586801F088BD3C030020014B58681D
:101A1C0002F0A6B93C030020232970B504461BD85C
:101A2C0000230C2505FB03F6A65FD8B2B1420DD0FE
:101A3C000133042BF6D1012A0CD100230C2505FB14
:101A4C0003F2A65ED8B2013601D1A15270BD0133AA
:101A5C00042BF4D11846F9E70420F7E770B50346D8
:101A6C004FF6FF72012500240B4E00F130011A8055
:101A7C005E601D725C720C338B42F8D1074B028690
:101A8C00998EA0F89010D98EA0F892105B8EA0F8C9
:101A9C009620A0F8943070BD00093D00088E000817
:101AAC00232970B505460E4621D80122FFF7B4FF55
:101ABC00032804461BD8232E0BD0B5F996300133DE
:101ACC0007D10121304604F01BFF0121304604F000
:101ADC0065FF0C20002300FB045485F88530627AE6
:101AEC00237A616805F1340000F0D2F82E8670BDBF
:101AFC0082B0F8B5232906AC05460E4684E80C00E6
:101B0C0026D80122FFF788FF0328044620D80C278B
:101B1C0007FB0057079B232E7B60BDF820303B81D1
:101B2C000BD0B5F99630013307D10121304604F0C2
:101B3C00E7FE0121304604F031FF0C2000FB045479
:101B4C007968237A627A05F1340000F0A1F82E86C8
:101B5C00BDE8F84002B070472329F0B519D8034608
:101B6C004FF6FF74012600270A4D00F13002B3F93D
:101B7C0000C00C338C4501BF23F80C4C43F8085CB7
:101B8C0003F8046C03F8037C9342F0D14FF6FF7317
:101B9C000386F0BD00093D002DE9F34105460C46D6
:101BAC0016461F469DF82080002B3BD0002A39D0CA
:101BBC00232937D8B0F9303099420FD00022FFF7E3
:101BCC002BFF03282ED80C2303FB0050037A427AF8
:101BDC00416805F1340000F05BF82C86232C07D00B
:101BEC00B5F99630013303D10021204604F0D6FE1E
:101BFC004FF47A73324600933146BBB205F1340090
:101C0C0000F06EF9232C0DD0B8F1010F0AD1B5F903
:101C1C009630013306D14146204602B0BDE8F04172
:101C2C0004F0BCBE02B0BDE8F08100000148FFF733
:101C3C0015BF00BF4403002070B50D0E445991FA36
:101C4C00A1F3B3FA83F30F269B0006FA03F324EAFD
:101C5C00030491FAA1F1B1FA81F1890002FA01F1C0
:101C6C002143415170BD00000346074A106853B12F
:101C7C00064A934205D002F57842934203D103F011
:101C8C0091B803F07FB87047200000200038004066
:101C9C002DE9F74F0D46174698460446002800F0EC
:101CAC00D0808649B0F95E0004F034FB844981464B
:101CBC00B4F95C0004F02EFB82498246B4F9600052
:101CCC0004F028FB80490646B4F9620004F022FBBC
:101CDC008346B9F1000F00F0B480BAF1000F00F0A8
:101CEC00B080002E00F0AD805146484604F018FB41
:101CFC0059468246304604F013FB01468146504655
:101D0C0004F00EFBA065BAF1000F00F09A80B9F157
:101D1C00000F00F09680002800F09380B4F9623038
:101D2C0020605A1C14BF4FF480234FF40073A3613E
:101D3C004FF482736360FFF797FFB5EB500FC0F061
:101D4C0083800023002617F0FD0FE3610CBF3346A0
:101D5C000123022F636134BF33460223236107231F
:101D6C00B045E36214BF33468023B4F95E00C4E986
:101D7C000836A660A662E660504904F0ABFAB4F9E6
:101D8C005C004F4904F0A6FAB4F960004D4904F028
:101D9C00A1FA2369B342B4F9603008BF0225C3F33A
:101DAC00031218BF0125042A8CBF3046474903F0A3
:101DBC000F0398BF51F82200454A52F823100B0E1E
:101DCC00C65891FAA1F2B2FA82F39A000F2393400B
:101DDC00334091FAA1F2B2FA82F2022D4FEA82025A
:101DEC0023FA02F34FEA11254DD0042B02D108221D
:101DFC00FFF722FFC26822EA050295FAA5F5012336
:101E0C00B5FA85F503FA05F51543C5602E49B4F905
:101E1C00620004F05FFA23682E4A93423FD12E4BA6
:101E2C009A6942F480529A619B6903F4805300933F
:101E3C00009B204603F0A0F82268136843F040038F
:101E4C00136003B0BDE8F08FB5EB900F01D30823FE
:101E5C0078E7B5EBD00F01D3102373E7B5EB101F68
:101E6C0001D318236EE7B5EB501F01D3202369E78C
:101E7C00B5EB901F01D3282364E7B5EBD01F2CBF23
:101E8C00302338235EE7042B02D10822FFF7D4FE5F
:101E9C00C36823EA050395FAA5F5C360B6E70F4AB4
:101EAC009342C6D10C4BDA6942F48042DA61DB69A9
:101EBC0003F480430193019BBBE700BF548D0008E2
:101ECC00248D0008848D0008B48D00080C000020BF
:101EDC001C8B00080030014000100240003800400C
:101EEC0013B538B133B1049C009403F080F8032887
:101EFC0003D000B1022002B010BD0120FBE700228C
:101F0C00C0E90022C0E9022202610262704738B5C2
:101F1C004568044635B1284600F03FFC3821284678
:101F2C0005F08EF8206810B1102105F089F8A06832
:101F3C0010B103685B689847E06810B103685B6890
:101F4C009847206910B103685B689847204638BDF4
:101F5C001FB5044600688DF80D2058B100238DF88C
:101F6C000C10CDE900330222012303A900F092FBEF
:101F7C0004B010BD01F07F0103468DF80C100090E9
:101F8C000222606803A900F065FDF1E7F8B504468C
:101F9C00DB0002F0070203F03803134343EA81131A
:101FAC009DF8187080F84C3090F850309DF81C500B
:101FBC009DF8206067F3471380F85030ED0090F8DF
:101FCC00483006F0070605F0380503F040033543AA
:101FDC001D4380F848500022F421FFF7B9FF94F814
:101FEC0050202046F2215209FFF7B2FF94F8482006
:101FFC002046C2F3C20302F007019B0043EA4113DF
:10200C0043EAD212F521FFF7A3FF94F84C202046A7
:10201C00C2F3C20302F007019B0043EA411343EAF7
:10202C009212F421BDE8F840FFF792BF1FB50446A9
:10203C00006868B100230122CDE9002303AB8DF8C1
:10204C000C10194600F092FB9DF80C0004B010BD6A
:10205C000122FF2361F07F01CDE9002303AB8DF852
:10206C000C106068194600F017FDEDE71FB504462B
:10207C00006890B102238DF80C100021CDE90031DD
:10208C0003AB0122194600F071FB9DF80C009DF882
:10209C000D3043EA002004B010BD0223FF2261F092
:1020AC007F01CDE9003203AB8DF80C1001221946EB
:1020BC00606800F0F1FCE8E708B5FFF7D7FF40BA1D
:1020CC0080B208BD1FB504460068B0B103238DF87B
:1020DC000C100021CDE9003103AB0122194600F0B0
:1020EC0045FB9DF80D309DF80C001B0243EA0043A4
:1020FC009DF80E00184304B010BD0323FF2261F0BD
:10210C007F01CDE9003203AB8DF80C10012219468A
:10211C00606800F0C1FCE4E738B588210446FFF79D
:10212C00CBFF8A21A0842046FFF7C6FF8C21E084D8
:10213C002046FFF7C1FF8E2120852046FFF7BCFF0C
:10214C00902160852046FFF7B7FF9221A08520469D
:10215C00FFF7B2FF9421E0852046FFF7ADFF9621F3
:10216C0020862046FFF7A8FF982160862046FFF7BF
:10217C00A3FF9A21A0862046FFF79EFF9C21E086B4
:10218C002046FFF799FF9E2120872046FFF794FFFA
:10219C00A12160872046FFF749FFE12184F83C002C
:1021AC002046FFF789FFE321E0872046FFF73EFF3B
:1021BC00E42184F840002046FFF738FFE52105466E
:1021CC002046FFF733FF6DB200F00F0040EA051018
:1021DC00E621A4F842002046FFF728FFE52105463A
:1021EC002046FFF723FF6DB2001140EA0510A4F85A
:1021FC004400E7212046FFF719FF84F8460038BD5C
:10220C00F32108B5FFF712FF00F0010008BD30B54F
:10221C00D02185B00446FFF709FF6028A0611FD1CB
:10222C00B622E0212046FFF793FE0A2004F0DCFBE7
:10223C002046FFF7E5FF05460028F6D12046FFF7BC
:10224C006BFF052303211A4620460093CDE9015567
:10225C00FFF79CFE642004F0C7FB012005B030BDE5
:10226C000020FBE7F8B5044640680E461746B8B99F
:10227C00206810B1102104F0E3FE102004F0DEFE03
:10228C00054631463A4600F0D9F901212846256029
:10229C0000F0F0F938B12046BDE8F840FFF7B7BFC1
:1022AC0000F084FAF6E70020F8BD000010B5FA2122
:1022BC000446FFF707FFB0F5000F36D002111046A9
:1022CC00002AA18CB8BFD01D002AB8BF0F32C1EBB9
:1022DC00221252434FEA4103C3EBE000B4F926301B
:1022EC00B4F9281048BF02F6FF72434312134A4355
:1022FC00002BB8BF03F2FF73002ABCBF02F57F525C
:10230C003F32DB1203EBA233226A1344E36103EB8B
:10231C00830313F1800048BF03F27F100012FEF715
:10232C00B5FC0349FEF7BAFD10BD0248FCE700BF3F
:10233C000000C8420000C07F2DE9F74F8046FFF730
:10234C00B5FFF7214046FFF7BDFEB0F5000F814603
:10235C0000F00481D8F81C20B2F5FA3C4FEAE27385
:10236C00ACFB0C1243F1FF3E0CFB0EF3CDE900125B
:10237C00019A02EB4303B8F92C20019302FB0EF4F3
:10238C00D3170CFB0344A2FB0C2323441D0301991C
:10239C0045EA12551403B8F92E2002FB01FA0099F4
:1023AC00D31701FB03AAA2FB01235344002A73F1A8
:1023BC00000102DAFF3243F100034FEA122A4AEA23
:1023CC00036AB8F82A204FEA232B1AEB04044BEBD0
:1023DC00050B0034A4FB02454BF5004B02FB0B55DF
:1023EC00002C75F1000303DA14F1FF3445F10105FB
:1023FC006A10EB1752EA030100F0B280B8F934A06E
:10240C00019900980AFB01F1B8F932404FEAEA7BD6
:10241C0000FB0B15AAFB00AB04FB0EFEAB44E5174F
:10242C000CFB05EEA4FB0C454FEA29197544C9F5C4
:10243C0080194FEA454C4CEAD43C4FEA444E4C468A
:10244C00E5171EEB0A00B8F930404FEAC57E4FF095
:10245C0000054CEB0B014EEA590E4FEAC97C4FEAD2
:10246C00C40940F63544281849EB0101BCEB0000C7
:10247C006EEB010EA0FB040104FB0E11FEF7AAFD8E
:10248C00002871F1000281468A460B4605DA41F6B6
:10249C00FF7019EB000041EB0503B8F93A20591312
:1024AC00400B40EAC34002FB01FCA2FB0045D317E2
:1024BC0000FB03CC6143654400FB0513A4FB000146
:1024CC0019440B46002873F10001024606DA6FF03E
:1024DC007E4142184FF0000141EB0303B8F938B0CC
:1024EC00510E0BFB0AF54FEAEB7C41EAC31158166F
:1024FC0009FB0C53ABFB094511EB09014AEB00003E
:10250C001D44002C75F1000305DA164BE4184FF04E
:10251C00000343EB0505E30C43EA4533CE184FEAC1
:10252C00E54240EB0207002E77F1000302DAFF369A
:10253C0047F100071022330A43EA0760B8F9363036
:10254C003912C3FB0201FDF771FF0022064BFDF7A8
:10255C009BFFFEF791FA03B0BDE8F08F0348FAE752
:10256C000020F8E7FFFF07000000703F0000C07F6D
:10257C0010B50446FFF79AFEFD212046FFF776FDC5
:10258C00B0F5004F56D0B4F94220E3691205C2EB06
:10259C008032B4F94400A3F5963303FB102094F871
:1025AC00402010F5804044BF00F5FF407F305A4377
:1025BC0094F9461048BF02F2FF724B434FEAE222F5
:1025CC0048BF03F2FF3302F500429B12534348BF4E
:1025DC0003F2FF33B4F93E209B1203F5001353436F
:1025EC0013F5005344BF03F57F533F339B13C013C4
:1025FC00584303460028BCBF00F5FF437F33DB1371
:10260C005B4394F83C2048BF7F33DB11534348BFF6
:10261C000F33A0EB231020EAE070B0F1C85FA8BF25
:10262C004FF0C8500013FEF72DFB4FF06A51FEF728
:10263C0081FB10BD0048FCE70000C07F4260002217
:10264C00027220220170C2607047037A10B50446F2
:10265C0053B121786068FEF7F5FE6068FEF736FF2F
:10266C00B0FA80F0400910BD012100F003F80028F9
:10267C00EFD1F8E738B504460D4640680021FEF767
:10268C00DDFE0120207225B12046BDE83840FFF761
:10269C00DCBF38BD2DE9F8431F46DDE90896C36859
:1026AC00154632449A420446884602D90020BDE8B9
:1026BC00F88301784068FEF7C5FE7EB960682A464B
:1026CC00036841465B6898478542EFD1394660689C
:1026DC00FEF7CCFEB0FA80F04009E8E7B9F1000F44
:1026EC00ECD060683246036849465B689847B04254
:1026FC00DCD1E3E72DE9F041154604460F46D2B292
:10270C0001784068FEF790FF85420BD10026B54258
:10271C0006F1010809D960680368DB689847B85569
:10272C004646F4E70020BDE8F0810120FBE72DE9E7
:10273C00F84307468846164699460025B54212D2FC
:10274C00FA68741B944228BF1446331BAB4294BFE7
:10275C004B4600232246384608EB0501FFF7CAFF1B
:10276C0010B12544EAE70120BDE8F88373B51D4696
:10277C000023CDE900339DF81C300446069EFFF77C
:10278C0089FF40B1012332462946204602B0BDE8FC
:10279C007040FFF7CCBF02B070BD10B50446406866
:1027AC0010B10C2104F04CFC204610BD38B5044689
:1027BC0090F90E00411C07D0012104F0A1F8012171
:1027CC0094F90E0004F0EAF825683DB1232128465F
:1027DC00FFF766F9012084F8340038BD012194F923
:1027EC000F0004F08DF8637B94F90F00012B94BF5C
:1027FC002946012104F0D2F894F91000421C07D0AC
:10280C00012104F07DF8012194F9100004F0C6F8C0
:10281C0094F91100431CDDD0002104F071F8D9E7C4
:10282C002DE9F04F04460068134687B040B10122F1
:10283C0000920A462321FFF7AFF907B0BDE8F08FED
:10284C00227BCB18002A0CBF012280220392039812
:10285C000A78DFF87C911042A0685A4A08BF4FF002
:10286C00010EB2FBF0FC5FFA8CFC18BF4FF0000EAF
:10287C00E04655480593059B8B42DED000250B782E
:10288C000493039BBCF1000F0CD0504A46681268AD
:10289C00B2FBF9F208FB02F2D0F804A0AAEB060A8C
:1028AC005245F9DC667BA26916F0FD0F51D194F903
:1028BC001060013615D0049E16EA030A14BF0126D7
:1028CC00002676450DD06669D4F824B0D6F800E021
:1028DC00BAF1000F37D04EEA0B0EC6F800E04FF0FD
:1028EC00010E1668E76A3E431660BCF1000F0DD06E
:1028FC00364ED0F804A03668B6FBF9F608FB06F69F
:10290C00D0F804B0ABEB0A0B5E45F9DC94F911601E
:10291C00013605D0E669A76A36683E4218BF1D43EA
:10292C001668E76A26EA0706166094F91120013248
:10293C0018BF0D70227B002A42D15B00DBB2002B4A
:10294C00A0D1013197E72EEA0B0EC6F800E0D6466F
:10295C00C7E71668E76A3E431660BCF1000F0DD05E
:10296C001A4ED0F804A03668B6FBF9F608FB06F64A
:10297C00D0F804B0ABEB0A0B5E45F9DC94F91060AF
:10298C0001360DD06669049FD4F824B0D6F800A0A7
:10299C001F4214BF4AEA0B0A2AEA0B0AC6F800A027
:1029AC001668E76A26EA0706166094F911200132C8
:1029BC00BBD0E2691668A26A164218BF1D43B4E781
:1029CC005B08BCE720A10700001000E020000020FD
:1029DC0040420F0007B501228DF807100DF10701D9
:1029EC00FFF71EFF9DF8070003B05DF804FB10B560
:1029FC00046886B05CB1426803AB07CA83E8070081
:102A0C00059A2321009220460CCBFFF771F806B0F3
:102A1C0010BD006810B12321FFF79EB8704790F9E4
:102A2C000E00431C01D003F0B9BF704710B504462B
:102A3C00FFF7DDFF2046BDE810400021FFF7EFBF98
:102A4C0010B504460121FFF7EAFF2046BDE810400F
:102A5C00FFF7DFBF2DE9F0411C4606460D46174631
:102A6C00FFF7E4FF069B04EB0308444508D12F4411
:102A7C00BD420BD0304615F8011BFFF7ABFFF7E753
:102A8C00304614F8011BFFF7A5FFEEE73046FFF7C1
:102A9C00D7FF0120BDE8F0812DE9F0410D46174626
:102AAC0006461C469DF81C80FFF7C0FF2F44BD4214
:102ABC000AD1069BE518AC420CD041463046FFF7D4
:102ACC0089FF04F8010BF6E7304615F8011BFFF7F8
:102ADC0081FFECE73046FFF7B3FF0120BDE8F08142
:102AEC0003460A4910B508680344EFF30882934281
:102AFC0005D90C224FF0FF30054B1A6010BD054A6A
:102B0C00054C121B9342F4D20B60F7E70000002037
:102B1C00840F0020005000200004000070470000CB
:102B2C0038B50E4B054618784FF47A73B3FBF0F3B7
:102B3C000B4A1068B0FBF3F000F08CF8044658B95F
:102B4C000F2D09D8024629464FF0FF3000F042F80D
:102B5C002046044B1D6038BD0120FCE7040000201A
:102B6C002000002008000020074A08B51368032045
:102B7C0043F01003136000F01BF80020FFF7D0FFA8
:102B8C00FFF7CCFF002008BD00200240034A044B95
:102B9C0011681B780B441360704700BF9005002030
:102BAC0004000020014B1868704700BF90050020FE
:102BBC0007490302CA6803F4E06322F4E0621204DA
:102BCC00120C134343F0BF6343F40033CB607047E4
:102BDC0000ED00E0164B30B5DC68C4F30224C4F100
:102BEC000703251D042B28BF0423062D4FF0FF35AA
:102BFC0098BF002405FA03F388BF033C21EA0303C2
:102C0C00A34005FA04F422EA0402002843EA020372
:102C1C00ACBF00F16040074A4FEA0313DBB2ABBF15
:102C2C0000F5614000F00F0080F80033135430BD04
:102C3C0000ED00E014ED00E0002808DB0123420960
:102C4C0000F01F0003FA00F0014B43F8220070471C
:102C5C0000E100E00138B0F1807F0AD2F021064B90
:102C6C00064A586082F823100020072298601A60E8
:102C7C0070470120704700BF10E000E000ED00E05D
:102C8C00002809DB0122430900F01F0002FA00F0C2
:102C9C00024A603342F82300704700BF00E100E0B5
:102CAC00704708B5FFF7FCFF08BD000008B590F8A9
:102CBC002130022B03D004238363012008BD036859
:102CCC001A6822F00E021A601A6822F001021A60C9
:102CDC00174A93421CD0143293421BD014329342A5
:102CEC001AD0143293421AD0143293421AD014329E
:102CFC0093420CBF4FF480134FF080730D4A536016
:102D0C004FF480730384436B7BB198470020D5E765
:102D1C000123F3E71023F1E74FF48073EEE74FF450
:102D2C008053EBE74FF48033E8E71846C6E700BF63
:102D3C00080002400000024090F82100704700009B
:102D4C00044A08B55169014202D0506103F0D8FC25
:102D5C0008BD00BF000401402DE9F84606460F46A9
:102D6C0091461D464FEA114A3368BAF1010F0CBF68
:102D7C005C699C6927EA0404A4B2B4FA84F464097B
:102D8C00A14501D0002017E06A1CEED0FFF70AFF26
:102D9C00089BC01AA84201D8002DE5D1002320229F
:102DAC000120336386F83D2086F83E30326C86F87D
:102DBC003C3042F020023264BDE8F88670470000D7
:102DCC0070B5044608B9012070BD90F83D3003F091
:102DDC00FF021BB980F83C20FFF7F0FF2423226888
:102DEC0084F83D30136823F00103136001F0CAFF2F
:102DFC003F4A6368934294BF3E4A3F4A90428CBF1D
:102E0C0000220122002ADED13C4E2268B0FBF6F6ED
:102E1C005168013821F03F01314351603449156A42
:102E2C008B4281BF4FF4967171434FF47A76B1FBAC
:102E3C00F6F125F03F0594BF711C01312943116255
:102E4C00D1692B4D21F44F41AB4221F0FF0132D817
:102E5C005B00B0FBF3F0431C40F6FC70034242D025
:102E6C00C3F30B030B43D3611168D4E9073021F092
:102E7C00C00103430B4313609168D4E9030321F4AD
:102E8C000341034321F0FF010B439360D168D4E964
:102E9C00053021F0FF0103430B43D360136800207E
:102EAC0043F0010313602023206484F83D30206339
:102EBC0084F83E0088E7A56855B903EB4303B0FBE3
:102ECC00F3F30133C3F30B037BB143F40043C9E7C2
:102EDC0019256B43B0FBF3F30133C3F30B0323B19D
:102EEC0043F44043BEE70423BCE70123BAE700BF29
:102EFC00A08601007F841E00FF083D0040420F00A9
:102F0C002DE9F04F044685B01E460F469146FFF75B
:102F1C0049FE94F83D300546202B03D0022005B025
:102F2C00BDE8F08F00901923012220464849FFF795
:102F3C0013FF0028F2D194F83C30012BEED0012382
:102F4C0084F83C3023684FF0010A1A68DFF800B1AE
:102F5C00D20758BF1A6807F0FE075CBF42F00102A7
:102F6C001A601A6822F400621A60242384F83D3037
:102F7C0000232364A3F58033E36222684FF0011130
:102F8C001368204643F48073136033460022009587
:102F9C00FFF7E2FE08B10120C1E723684FF0A0085B
:102FAC001F61FFF7FFFD054623685A695B69C2F391
:102FBC004002C3F3802394F83D10A02901D01343A1
:102FCC0021D04FF02008236884F83D805A6912F014
:102FDC00020F1A6842F400721A6024D00022039285
:102FEC005A69204603929B6901220393039B18495B
:102FFC0019230095FFF7B0FE0028CCD184F83D8052
:10300C0084F83C008BE7FFF7CDFD401BB04200D8A5
:10301C000EB984F83D8023685A695B69C2F340029B
:10302C00C3F38023C7E76FF4806259465A61204688
:10303C00192301220095FFF78FFE0028ABD10AF16E
:10304C00010ACA4599D384F83D8084F83C00A2E774
:10305C000200100073B500240094019490F83D40D8
:10306C00069D202C02D0022002B070BD082D01D08C
:10307C00012D1FD146F2A816294C2468B4FBF6F694
:10308C00192474430194019C013C0194019C6CB97A
:10309C002023046380F83D3080F83E40036C80F8B8
:1030AC003C4043F0200303640120DDE70468A4697D
:1030BC00A407E8D490F83C40012CD4D004682668CE
:1030CC00F6075EBF266846F001062660266826F4E1
:1030DC0000662660212680F83D60102680F83E6050
:1030EC00002606644385438DC56241640385036BEA
:1030FC0042620093009B112B05D1B5F52A0F02D02B
:10310C00B5F12A4F03D1236843F480732360002365
:10311C0080F83C306268184642F4E0626260A3E7D3
:10312C002000002073B500240094019490F83D40D9
:10313C00069D202C02D0022002B070BD082D01D0BB
:10314C00012D1FD146F2A816384C2468B4FBF6F6B4
:10315C00192474430194019C013C0194019C6CB9A9
:10316C002023046380F83D3080F83E40036C80F8E7
:10317C003C4043F0200303640120DDE70468A469AC
:10318C00A407E8D490F83C40012CD4D0012480F85A
:10319C003C4004682668F6075EBF266846F00106C8
:1031AC002660266826F400662660222680F83D609C
:1031BC00102680F83E60002606644385438DC56268
:1031CC0041640385036B42620093438D9BB2022BD7
:1031DC0025D1202D01D0102D21D1009B122B23683D
:1031EC001ED14FF4407123F480632360236843F4B1
:1031FC0000632360009B122B05D1B5F52A0F02D07A
:10320C00B5F12A4F03D1236843F480732360002364
:10321C0080F83C30626818460A4362608CE7236889
:10322C0043F480634FF4E0612360E3E72000002067
:10323C0037B590F83D4004F02804282C31D10029F2
:10324C002DD0002A2BD090F83C40012C29D00568B9
:10325C002C68E4075EBF2C6844F001042C602C68D9
:10326C0024F400642C60292480F83D40202480F84C
:10327C003E40002404644285428DC36201946B6914
:10328C0041620193AB69028580F83C402046019372
:10329C00019B6B6843F4E0636B6003B030BD0120AD
:1032AC00FBE70220F9E737B590F83D4004F028041D
:1032BC00282C31D100292DD0002A2BD090F83C405D
:1032CC00012C29D005682C68E4075EBF2C6844F0FB
:1032DC0001042C602C6824F400642C602A2480F8EF
:1032EC003D40202480F83E40002404644285428DF9
:1032FC00C36201946B6941620193AB69028580F8EA
:10330C003C4020460193019B6B6843F4E0636B6087
:10331C0003B030BD0120FBE70220F9E790F83D3007
:10332C00202B14D1282380F83D30036800201A6824
:10333C00D2075EBF1A6842F001021A601A6842F4A2
:10334C0080621A605A6842F440725A6070470220D8
:10335C00704770477047704770477047002370B5CF
:10336C00406A026890F83D101468466B856B24F433
:10337C008064B362AB62146043851468736324F099
:10338C0001046B63146090F83D40C9B2602C08D105
:10339C00202280F83D2080F83E300364FFF7DDFFEB
:1033AC0070BD01F0280128290DD1146844F00104E6
:1033BC001460146844F480641460036380F83D1056
:1033CC00FEF70CFBECE7202280F83D2080F83E3025
:1033DC00F6E7000010B590F83D2090F83E1004463A
:1033EC0010290368D2B212D1222A10D1196821F403
:1033FC00006119605968090504D4602A1CBF202299
:10340C0084F83D200022226384F83E2007E002F07D
:10341C0028012829EED10022226384F83D105A6835
:10342C0012F400624CD05A68606B22F400625A604D
:10343C0090F82130012B364B28D04363FFF736FC34
:10344C0050B12268606B136823F0010313602023D2
:10345C0084F83D30436B984794F83D30226CDBB2D6
:10346C00520712D5282B10D122682046536823F41A
:10347C00E0635360274B2022E3620023236384F82C
:10348C003D2084F83E30FEF77DFA10BDA06B4363FF
:10349C00FFF70CFC0028DFD023685A69520605D5CB
:1034AC001A69636A1A70636A013363622268A06BDB
:1034BC00136823F001031360202384F83D30C9E71F
:1034CC0094F83D10602915D1202184F83D10226418
:1034DC005A69500605D51A69636A1A70636A013312
:1034EC00636222682046136823F001031360FFF720
:1034FC0034FFB1E75A69510605D51A69636A1A7027
:10350C00636A013363622046FEF768FAA4E700BFE2
:10351C00693300080000FFFF70B5036804465A6861
:10352C00C16A90F83E5090F83D00102D8CB0EEB270
:10353C00C0B202D0402E40F0B7829D695869C607D0
:10354C0007D4B1F52A0F02D0B1F12A4F52D10CB0E9
:10355C0070BD91054ED5E26AB2F52A0F0CD101224D
:10356C00E26294F83E20402A11D1226D52B9626C6D
:10357C0002F0FE021A61EAE7E26AB2F12A4FF0D1D8
:10358C000822EDE7626C42F00102D2B2F2E7226946
:10359C00B2F5804F1BD194F83D20212A626C12D1D8
:1035AC0002F0FE021A61626B12B9A16B0029CED037
:1035BC00926A1AB9A26B926A002AC8D05A6842F46D
:1035CC0000625A60C3E742F00102D2B2EAE7226D10
:1035DC0032B9626CD21102F0060242F0F002C9E775
:1035EC00226D012AB3D1626CD21102F0060242F0B4
:1035FC00F102BFE7060703D5910501D5626CE4E73C
:10360C00860740F1E680910540F1E38094F83E1086
:10361C00E26A256B94F83D00C9B2222840F0D180B3
:10362C00206D40B9402906D100905A6900929B69DF
:10363C000093009B8BE7216D81B92069B0F5404F59
:10364C000CD101915A6901929A690192019A1A68F6
:10365C0042F480721A60236D013328E0618D89B2C7
:10366C0051B902915A6902929A690292029A1A68A5
:10367C0042F400721A6019E0618D89B201294AD1B5
:10368C0012F5803F1CD11A6822F480621A605A68C5
:10369C0012F400620DD01A6822F480621A600022C3
:1036AC0003925A6903929B690393039B002323653E
:1036BC004DE704925A6904929A690492049AD6E7E7
:1036CC00082A1CD0202A1AD0122D0DD1012A16D16D
:1036DC001A6822F480621A60002205925A690592D7
:1036EC009B690593059BE1E7102AF1D88F4921FAD4
:1036FC0002F2D607ECD51A6842F48062EBE71A683E
:10370C0022F480621A60002206925A6906929A6923
:10371C000692069AABE7618D89B2022933D1102A41
:10372C0005D88249D140C94311F0010120D0196854
:10373C0041F4006119600021079159690791996959
:10374C0007910799196821F48061196059680D0572
:10375C00ACD512F5803F06D0511E1F29A6D8744A4D
:10376C00CA40D007A2D55A6842F480525A609DE7ED
:10377C00186840F48060186008915969089199693B
:10378C0008910899E2E7196841F480611960596859
:10379C0009050ED512F5803F07D0013A1F2A08D82B
:1037AC00634921FA02F2D60703D55A6842F48052D3
:1037BC005A60002209925A6909929B690993099BE4
:1037CC0074E700220A925A690A929B690A930A9B2F
:1037DC00BDE66D07596840F1AD800E053FF5B7AEFB
:1037EC000506C0F3800169D5500567D5002968D15D
:1037FC0094F83D20258D94F83E10D2B2E06AC9B2FF
:10380C00C5B9212A18D1082878D0202876D010F5EF
:10381C00803F73D05A6822F4E0625A60112323630C
:10382C00002384F83E302023204684F83D30FFF7F7
:10383C0090FD8CE6212A05D040297FF488AE222AFF
:10384C007FF485AE628D92B21AB95A6822F4806206
:10385C00B7E694F83E20402A26D1226D62B9E26C7C
:10386C00012AA26C04D1D2B21A61236D02331EE775
:10387C00C2F307221A61EEE6226D012A02D1A26C74
:10388C00D2B2F7E7226D022A7FF461AE94F83D20A4
:10389C00222A04D11A6842F480721A6057E694F80E
:1038AC003D20212A7FF453AE626A12F8011B196184
:1038BC006262638D013B9BB2638548E600293FF44D
:1038CC0046AE92057FF543AEE16A94F83D20212A7D
:1038DC007FF43DAE628D92B2002AE5D108290DD05D
:1038EC0020290BD011F5803F08D0596821F4E061F4
:1038FC0059601123236384F83E2094E75A682046CC
:10390C0022F4E0625A601A6842F400721A600023D2
:10391C002022236384F83D2094F83E2084F83E3026
:10392C00402A84D1FFF717FD11E600BF14000100F7
:10393C00818000800E053FF50AAE4506C0F380017C
:10394C0048D5500546D5002947D194F83D20222A68
:10395C007FF4FDAD628D92B2032A14D91A69636AA1
:10396C001A70636A01336362638D013B9BB263859A
:10397C00638D9BB2032B7FF4EAAD2268536823F46A
:10398C0080635360E3E5E06A02283FF4E0AD012A6E
:10399C003FF6DDAD1A6822F480621A605A6822F490
:1039AC00E0625A601A69636A1A70636A013363626F
:1039BC00638D013B9BB26385202384F83D3094F8E2
:1039CC003E3084F83E10402B68D121632046FFF72F
:1039DC00C3FCBCE500293FF4BAAD92057FF5B7AD49
:1039EC00E26A608D616A80B2042809D15A6822F4B7
:1039FC0080625A601B690B70636A0133636258E71B
:103A0C00608D80B203280CD15868042A20F48060A1
:103A1C005860EFD0022AEDD01A6822F480621A6046
:103A2C00E8E7608D80B20228E4D1012A01D0102A87
:103A3C0028D11A6822F480621A601B690B70626AC2
:103A4C00531C6362638D013B9BB2638523681B69C6
:103A5C005370636A226801336362638D013B9BB2CE
:103A6C006385536823F440735360202384F83D30FE
:103A7C0094F83E30402B4FF0000384F83E300DD1CB
:103A8C002363A3E7042A01D0022A03D11A6842F463
:103A9C008062D1E71A6842F40072CDE71223204607
:103AAC002363FFF757FC52E5216C11B300255969CC
:103ABC008E0728D5960526D5226C02B19D6994F8FF
:103ACC003D2002F02802282A16D15A686FEA950187
:103ADC0022F480625A602B064FF00003204654BF3C
:103AEC00A289228B01F0010184F83C30FDF727FFFD
:103AFC002DE59D695969DBE76FF002025A610023DD
:103B0C0084F83C3023E5CE0640F1B180950540F1B8
:103B1C00AE8094F83D505A68EDB222F4E0625A60DF
:103B2C0000220B925A690B921A6842F001021A6039
:103B3C000B9A1A6822F480621A605A68120520D512
:103B4C0005F0F702222A4AD1A06B0268526892B2A1
:103B5C006285628D92B21AB1226C42F00402226428
:103B6C005A6822F400625A60FFF7E6F8012808D080
:103B7C00A06B794B4363FFF799F810B1A06B436BC3
:103B8C009847638D9BB213B323685A69560709D5BE
:103B9C001A69636A1A70636A01336362638D013B4D
:103BAC009BB2638523685A69500609D51A69636A02
:103BBC001A70636A01336362638D013B9BB2638548
:103BCC00638D9BB21BB1236C43F004032364236C01
:103BDC0013B320460CB0BDE87040FFF7FBBB606B25
:103BEC000268526892B26285628D92B21AB1226CEE
:103BFC0042F0040222645A6822F400625A60FFF711
:103C0C009BF80128BDD0606B534B4363FFF74EF814
:103C1C000028B6D0606BB2E72A2D06D12363282387
:103C2C00204684F83D30FDF7C3FE94F83D30282B38
:103C3C000CD14A4B2022E36200232046236384F8F4
:103C4C003D2084F83E30FDF79DFE80E4236B222B53
:103C5C0002D0222D7FF47BAC00232022236384F836
:103C6C003D2084F83E302046FDF7A2FE6FE400F0C4
:103C7C00F7002128C1F3800535D1090627D5560553
:103C8C0025D53DBB94F83D10628DC9B292B2002A85
:103C9C003FF45DAC626A12F8015B1D616262628D79
:103CAC00013A92B26285628D92B2002A7FF44FACD7
:103CBC0029297FF44CAC5A6822F480625A6028237C
:103CCC002063204684F83D30FDF784FE3FE4002D50
:103CDC003FF43DAC95057FF53AAC628D92B2002A6B
:103CEC003FF435ACE0E5480627D5510525D53DBB5D
:103CFC0094F83D20618DD2B289B200293FF427ACF3
:103D0C001969636A1970636A01336362638D013BDD
:103D1C009BB26385638D9BB2002B7FF418AC2A2A6F
:103D2C007FF415AC2268536823F48063536022231C
:103D3C002363282384F83D3095E7002D3FF407AC2E
:103D4C0092057FF504AC628D92B2002A3FF4FFAB72
:103D5C001A69636A1A704FE6693300080000FFFFA6
:103D6C00F8B5036804465F695E68FA05C7F3002579
:103D7C000BD5F005C6F3002507D56FF4807201252D
:103D8C005A611A6842F400421A60B90506D5F20568
:103D9C0042BF6FF4007245F002055A61780537D5C1
:103DAC00F10535D594F83EC0618D94F83D20BCF1F9
:103DBC00200F206B89B2D2B25AD1002958D102F00F
:103DCC00F701212903D0282A52D1212850D194F867
:103DDC003D20E16AD2B2082901D020292AD1282A13
:103DEC0028D12C4A2046E2625A6822F4E0625A60DA
:103DFC006FF480625A611A6822F480621A600023A0
:103E0C002022236384F83D2084F83E30FDF7BAFD70
:103E1C003A053BD5F30539D56FF40062236845F0BC
:103E2C0008055A61236C20461D432564BDE8F84003
:103E3C00FFF7D0BA212A17D116492046E162226336
:103E4C00202284F83D20002284F83E205A6822F477
:103E5C00E0625A606FF480625A611A6822F48062E0
:103E6C001A60FDF7B7FDD3E76FF480625A61CFE7B4
:103E7C006FF480625A6194F83E2045F00405102AD4
:103E8C0002BF1A6842F400721A60C1E7002DC9D152
:103E9C00F8BD00BF0000FFFF90F83D007047006CBC
:103EAC007047F0B5044687B0002867D090F8A93465
:103EBC0003F0FF021BB980F8A82403F05BFF032377
:103ECC0025466E4684F8A93455F8100B01F0C2FB58
:103EDC000FCD0FC62B68271D336097E80E002068A6
:103EEC0001F0A8FB0021206801F0BEFB0021234655
:103EFC0022460126084604F1100582F82810918606
:103F0C0001310F29C2E90E0082F8296082F82B00DA
:103F1C001064A2F84800A2F84A0002F12402ECD185
:103F2C0000210A4683F86812A3F8741201310F2994
:103F3C00C3E99E2283F8692283F86B22C3F880229E
:103F4C00A3F88822A3F88A2203F12403EAD16E464F
:103F5C000FCD0FC62B68336097E80E00206801F078
:103F6C0085FB4FF0000384F824300123206884F88B
:103F7C00A93401F084FE002007B0F0BD0120FBE75E
:103F8C0010B590F8A8340446012B0ED0012180F80E
:103F9C00A81400F084FC206801F06FFE206801F08A
:103FAC0050FB002084F8A80410BD0220FCE710B5DB
:103FBC0090F8A8240446012A0BD0012280F8241082
:103FCC0080F8A824006801F052FE002084F8A804B0
:103FDC0010BD0220FCE710B50446242011F0800F20
:103FEC001BBF01F07F0100FB014100FB01412831A7
:103FFC0008BF01F51A710A61CB7094F8A834012B33
:10400C0009D00123206884F8A83401F04BFB002070
:10401C0084F8A80410BD0220FCE7242310B511F08D
:10402C00800F1ABF01F07F0103FB010103FB0101AB
:10403C0090F8A83414BF283101F51A71012B0446ED
:10404C0009D0012380F8A834006801F0D1FC0020CD
:10405C0084F8A80410BD0220FCE72DE9F04F2427BA
:10406C0001F07F067743C119C1E99F23002307F5AF
:10407C001A790546814485B00068C1F8843236B996
:10408C00494601F012FE002005B0BDE8F08F91F812
:10409C00683230F823309BB2ADF80C30BDF80C30E0
:1040AC00580632D5B1F88A324FF0240B4FF6FE7811
:1040BC000BFB065407F5227A07F28A27AA442F44F1
:1040CC000BB1434524D10BFB065696F87232002BEC
:1040DC00D9D1D6F87C32002BD5D0D6F88032002B33
:1040EC00D1D096F868122A6832F8213023F4804334
:1040FC0023F070031B041B0C83F4405343F4004364
:10410C0043F0800322F82130BDE7B1F88832CBE7C9
:10411C00D4F87C120029B6D0D4F880020028B2D092
:10412C004FF6FF7CBDF80C2052064BBFB4F8702242
:10413C00B4F86E22A4F88A82A4F88882634506D06B
:10414C00984205D24946286801F01DFD9BE70023E3
:10415C002868019301F01BFE019BD4F884221A44B9
:10416C00C4F88422D4F87C221A44C4F87C22D4F8F3
:10417C008022D21AC4F880221AB1D4F87822934241
:10418C0004D2284694F8681203F044FE94F869327D
:10419C007BBB94F868122A6832F8213023F0F003C4
:1041AC001B051B0D43F4004343F0C00322F82130E0
:1041BC00BDF80C30002213F0400F0CBF51463946AD
:1041CC00D1E85F3F9BB2ADF80E30BDF80E309BB21C
:1041DC0043451ED094F868222B6833F822309BB2EA
:1041EC00ADF80C30BDF80C305B0617D4B4F888323F
:1041FC0066E7012BDCD194F868122A6832F821307A
:10420C0023F0F0031B051B0D43F4404343F08003E4
:10421C00CCE7C1E8532F002BD2D1DBE7B4F88A32BC
:10422C004EE7242301F00F0103FB0101B1F88402D6
:10423C00704738B501F07F042421002561434418F0
:10424C0028310144C4E90F236564006801F02DFD99
:10425C00284638BD2DE9F7430446006801F011FDEE
:10426C00020440F13B8100237E4FDFF8FC81DFF834
:10427C00FC91ADF80430ADF806302068B0F844304D
:10428C009BB21A04ADF8043040F12881BDF80460EB
:10429C0016F00F0640F0AB80BDF80410038811F047
:1042AC0010019BB226D13B400380B0F8503094F8FB
:1042BC0028209BB203EBC20300EB4300D0F804347C
:1042CC00E26BC3F3090363641344E363204603F016
:1042DC00AAFD94F82430002BCFD0226C002ACCD12C
:1042EC0094F82430216843F08003A1F84C3084F812
:1042FC002420C2E7ADF80630BDF806301B051FD5EB
:10430C00B0F8503094F868229BB203EBC20300EB78
:10431C004303D3F80C34B4F86C22C3F30903C4F888
:10432C00843204F2AC4101F032FD2268204613883D
:10433C0023F070031B051B0D138003F065FD9CE738
:10434C00BDF806301E0498D5038823F070031B05B6
:10435C001B0D0380B0F8503094F868229BB203EB2D
:10436C00C20300EB4303D3F80C34C3F30903C4F8C2
:10437C00843263B1B4F86C22D4F87C1201F007FDDE
:10438C00D4F87C32D4F884221344C4F87C32002153
:10439C00204603F03FFD2268D4F87852B2F8501052
:1043AC003E2D89B201F1060102F5806017D9C5F3E3
:1043BC004F13ED0604BF03F1FF339BB249EA83238D
:1043CC009BB240F8113013889BB203EA080383F4C4
:1043DC00405343F4004343F0800313804DE7C5F38F
:1043EC004F03EE0744BF01339BB29B02E8E730F862
:1043FC0026309BB2ADF80630BDF806301D0440F1F6
:10440C004781242230F8263002FB064223F0700349
:10441C001B051B0D20F8263092F8723200F58065D2
:10442C0033BBB0F8503092F868129BB2063303EBF2
:10443C00C10355F81350C5F30905002D00F009818F
:10444C00B2F86CE22421714304EB010CDCF88032ED
:10445C009D4240F2788101F51A71214401F093FBE1
:10446C003CE000BF0F8FFFFF8FBFFFFF0080FFFFFF
:10447C00BDF80630590640F1C980B2F88AC2BCFAC0
:10448C008CFC4FEA5C1C242101FB064191F868323C
:10449C00D1F880224FEAC30EB0F850309BB273446F
:1044AC00BCF1000F00F03281063355F81350B1F80F
:1044BC0070E2C5F309053AB1D1F87C3223B1BDF8ED
:1044CC0006305A0600F1AA804FF6FF73002D08BF84
:1044DC001D46242303FB0646A6F88A52206801F0E9
:1044EC00D0FB43050FD522682046B2F8443023F4A4
:1044FC0080631B041B0CA2F8443003F0A0FC0021C9
:10450C002046FFF754FD206801F0BBFB470408D59B
:10451C002268B2F8443023F480431B041B0CA2F82D
:10452C004430206801F0ADFB860408D52268B2F84F
:10453C00443023F400531B041B0CA2F844302068B5
:10454C0001F09FFBC5041CD522682046B2F8403010
:10455C0023F004031B041B0CA2F84030B2F84030CB
:10456C0023F008031B041B0CA2F8403003F084FC5E
:10457C002268B2F8443023F480531B041B0CA2F8BD
:10458C004430206801F07DFB00051DD52068B0F893
:10459C0040309BB243F00803A0F84030B0F84430F0
:1045AC0023F400631B041B0CA0F84430B0F840301B
:1045BC009BB243F00403A0F8403001F062FBC1044D
:1045CC0002D4204603F048FC206801F05AFB820517
:1045DC000BD522682046B2F8443023F400731B0438
:1045EC001B0CA2F8443003F026FC206801F049FBB8
:1045FC00C30508D52268B2F8443023F480731B0439
:10460C001B0CA2F8443003B0BDE8F083B2F888C2AA
:10461C00BCF1000C18BF4FF0010C34E70023A1F8DB
:10462C008832002D7FF40EAF242303FB064393F84E
:10463C00722272B193F86812226832F8213023F09A
:10464C00F0031B051B0D43F4004343F0C00322F899
:10465C002130242303FB0643D3F884222A44C3F8D5
:10466C008422D3F87C222A44C3F87C22D3F88022FB
:10467C00521BC3F880221AB1D3F87822954269D222
:10468C00242303FB0643204693F8681203F0C2FB75
:10469C00BDF806301D067FF5F0AD2420236800FB25
:1046AC00064033F8262003F5806192B23A4023F895
:1046BC00262090F83220002A61D1B3F8502090F8CF
:1046CC00285092B2023202EBC50251F81220C2F30A
:1046DC0009024264242202FB0646B3F8503096F8D5
:1046EC0028209BB2023303EBC20351F81320F36B67
:1046FC00C2F3090272641A44336C204696F82810EF
:10470C00F263002B61D103F08EFBB6E5023355F852
:10471C001350B1F86EE2C5F3090532B1D1F87C3211
:10472C001BB1BDF806305B060AD54FF6FF73002DA2
:10473C0008BF1D46242303FB0646A6F88852CDE687
:10474C00A1F88AC26DE72B467246DCF87C1201F0A8
:10475C001EFB69E793F87222002A99D193F868122C
:10476C00226832F821309BB203EA080383F44053E9
:10477C0043F4004343F0800322F8213088E790F89B
:10478C00282033F82250D000B3F8502092B20244C3
:10479C0068064FF0240048BF023200FB064058BFA9
:1047AC00063251F81220C2F30902426490F8280034
:1047BC0033F8202022F0F0021205120D42F4404290
:1047CC0042F0800223F8202084E7FFF732FD54E505
:1047DC0038B50D46242311F0800F0DBF03FB0503E4
:1047EC0001F07F0103FB010103F51A714FF0010386
:1047FC0018BF28318B7090F8A82404469A420FD029
:10480C0080F8A834006801F0BEF96B0604D120686A
:10481C0004F2AC4101F039FA002084F8A80438BD48
:10482C000220FCE738B52423002511F0800F1BBFB4
:10483C0001F07F0103FB010103FB0101283108BFDB
:10484C0001F51A718D7090F8A8340446012B09D02B
:10485C00012380F8A834006801F0C7F9284684F8D1
:10486C00A85438BD0220FCE710B5242411F0800FA9
:10487C001BBF01F07F0104FB010004FB0100283089
:10488C0008BF00F51A7099B21AB9827281800020A3
:10489C0010BD01221B0C8272C1800381F7E77047A7
:1048AC002DE9F341054638B30368DB0710D42B68B8
:1048BC009F075ED42B68190700F195802B685A0767
:1048CC0000F1BF80E869002840F02C81002029E02D
:1048DC008F4C636803F00C03042B07D0636803F060
:1048EC000C03082B0AD16368DE0307D523689C03ED
:1048FC00DDD56B68002BDAD1012013E06B68B3F5C2
:10490C00803F12D1236843F480332360FEF74AF9C9
:10491C00064623689803CAD4FEF744F9801B642822
:10492C00F7D9032002B0BDE8F0819BB9236823F4CA
:10493C0080332360236823F480232360FEF732F94D
:10494C00064623689903B2D5FEF72CF9801B642820
:10495C00F7D9E6E7B3F5A02F236803D143F48023FE
:10496C002360CFE723F480332360236823F4802370
:10497C00CBE7674C636813F00C0F07D0636803F048
:10498C000C03082B10D16368DA030DD423689B0742
:10499C0002D52B69012BAFD123686A6923F0F80388
:1049AC0043EAC203236085E72A695A4B6AB10122A4
:1049BC001A60FEF7F7F8064623689F07ECD4FEF75B
:1049CC00F1F8801B0228F7D9ABE71A60FEF7EAF87A
:1049DC000646236898077FF56DAFFEF7E3F8801B5A
:1049EC000228F6D99DE7AA69494E4B4BDAB1012250
:1049FC001A60FEF7D7F80446736A9B070DD54FF47F
:104A0C00FA52464B1B68B3FBF2F3019300BF019BB8
:104A1C005A1E0192002BF9D150E7FEF7C3F8001B88
:104A2C000228E9D97DE71A60FEF7BCF80446736AE0
:104A3C009F077FF543AFFEF7B5F8001B0228F6D9A8
:104A4C006FE7334CE369D80024D40127E36943F0C2
:104A5C008053E361E36903F080530093009B304E75
:104A6C003368D90518D5EB68012B26D1236A43F09E
:104A7C0001032362FEF796F841F288380646236A52
:104A8C009B073FD5002F3FF41DAFE36923F0805304
:104A9C00E36117E70027E2E7336843F48073336080
:104AAC00FEF780F880463368DA05DCD4FEF77AF836
:104ABC00A0EB08006428F6D933E7ABB9236A41F2BE
:104ACC00883823F001032362236A23F00403236252
:104ADC00FEF768F80646236A9807D3D5FEF762F806
:104AEC00801B4045F7D91CE7052B236A03D143F003
:104AFC0004032362BAE723F001032362236A23F041
:104B0C000403B6E7FEF74EF8801B4045B7D908E71B
:104B1C00001002400000424280044242200000206B
:104B2C00007000402A4B5A681C4602F00C02082AFE
:104B3C003DD00023274E022833602BD1FEF732F8EC
:104B4C000746236899011FD42B6AB3F5803F05D122
:104B5C006268A96822F400320A436260696A62687A
:104B6C000B4322F474121343636001233360FEF78A
:104B7C0019F8054623689A013FF5A8AEFEF712F81E
:104B8C00401B0228F6D9CCE6FEF70CF8C01B022815
:104B9C00D7D9C6E6FEF706F8054623689B017FF5D4
:104BAC0095AEFDF7FFFF401B0228F6D9B9E60128A8
:104BBC003FF4B8AE5B682A6A03F4803191427FF40B
:104BCC009BAE6A6A03F4701393423FF47FAE93E694
:104BDC00001002406000424230B5184B87B002AC66
:104BEC0003F11005224618685968083303C2AB421A
:104BFC001446F7D140F201231149ADF804304B684B
:104C0C0003F00C02082A17D1C3F3834206A802440E
:104C1C00DB0312F8102C0CD54B680A48C3F3404345
:104C2C00504306AA134413F8143CB0FBF3F007B03E
:104C3C0030BD05485043FAE70248F8E79C8A000863
:104C4C000010024000127A0000093D002DE9F041ED
:104C5C000D46044610B90120BDE8F081444A1368A2
:104C6C0003F007038B4228D321688E0730D4CA0780
:104C7C0043D43F4A136803F00703AB4265D822685C
:104C8C003C4D12F0040F6CD1130706D56B682269EA
:104C9C0023F4605343EAC2036B60FFF79DFF6B681C
:104CAC00354AC3F30313D35CD840344B1860344BF0
:104CBC001868FDF735FF0020CEE7136823F00703D3
:104CCC000B431360136803F007038B42C3D1CBE78C
:104CDC00284B11F0040F1EBF5A6842F4E0625A6070
:104CEC00080742BF5A6842F460525A605A68A0687A
:104CFC0022F0F00202435A60B9E762681D4E012AA5
:104D0C0033681AD113F4003FA5D0736841F2883888
:104D1C0023F0030313437360FDF744FF07467368E6
:104D2C00626803F00C03B3EB820FA2D0FDF73AFFDD
:104D3C00C01B4045F3D903208EE7022A02D113F0A1
:104D4C00007FE1E713F0020FDEE7136823F007039F
:104D5C002B431360136803F00703AB427FF47BAF64
:104D6C008DE76B68E16823F4E0630B436B608BE7C2
:104D7C0000200240001002405C8B00082000002044
:104D8C0008000020044B054A5B68C3F30223D35C84
:104D9C00034A1068D8407047001002406C8B000822
:104DAC0020000020044B054A5B68C3F3C223D35C8C
:104DBC00034A1068D8407047001002406C8B000802
:104DCC002000002003682DE9F341D907054620D5C2
:104DDC00354CE369DA0032D40127E36943F08053A0
:104DEC00E361E36903F080530193019B2F4E336819
:104DFC00DB0526D5236A13F4407336D1236A6A681F
:104E0C0023F44073134323621FB1E36923F08053EF
:104E1C00E3612868830706D52349AB684A6822F406
:104E2C0040421A434A6010F010001BD01E4AE96839
:104E3C005368002023F480030B43536012E00027D7
:104E4C00D4E7336843F480733360FDF7ABFE8046E0
:104E5C003368D805CED4FDF7A5FEA0EB0800642876
:104E6C00F6D9032002B0BDE8F0816A6802F4407202
:104E7C009A42C3D001200E4A236A1060002023F40A
:104E8C00407110602162D907B8D5FDF78BFE41F255
:104E9C0088380646236A9A07B0D4FDF783FE801B38
:104EAC004045F7D9DDE700BF00100240007000401C
:104EBC0040044242036810B51A680446920708D5AC
:104ECC005B689B0705D501F035FA6FF00202236889
:104EDC005A604FF40032024B5A610123637410BDC7
:104EEC0000040140F8B504460E4615461F462268DC
:104EFC00936836EA030301D000202DE06B1CF7D039
:104F0C00FDF750FEC01B8542F1D823685A6822F089
:104F1C00E0025A606268B2F5827F0AD1A268B2F5EB
:104F2C00004F02D0B2F5806F03D11A6822F0400214
:104F3C001A60A26AB2F5005F07D11A6822F4005217
:104F4C001A601A6842F400521A60012384F8513036
:104F5C000023032084F85030F8BD10B513460A46E0
:104F6C0080210446FFF7BEFF20B10320636D43F0A0
:104F7C002003636510BD704710B50446002834D07B
:104F8C000023836290F8513003F0FF021BB980F8C4
:104F9C005020FFF7F0FF0223226884F85130136889
:104FAC00A16923F040031360D4E901300343E068A6
:104FBC0003432069034360690343E0690343206AA8
:104FCC000343A06A034301F40070090C034301F08E
:104FDC00040113605160D369002023F40063D36192
:104FEC000123606584F8513010BD0120FCE72DE9E8
:104FFC00F7431E4690F850300446012B0D4691465F
:10500C00DDF8288000F0E080012380F85030FDF7B7
:10501C00C9FD94F851300746012B6268D9B20AD009
:10502C00B2F5827F40F0CE80A368002B40F0CA809E
:10503C00042940F0C780002D3FD0B9F1000F3CD0BF
:10504C00002E3AD094F85130C4F83890042B1CBF81
:10505C00052384F8513000236365C4E910332368B9
:10506C00E687E6861968A687490658BF196825633E
:10507C0058BF41F04001A68658BF1960E168B1F5F0
:10508C00006F51D10AB1012E07D135F8022BDA602D
:10509C00E38E2563013B9BB2E3860125E38E9BB235
:1050AC006BB9E38F9BB253B93A4641462046FFF7A2
:1050BC0054FF00287BD02023636501202BE021685E
:1050CC008B689A070DD5E38E9BB253B14DB1002579
:1050DC00236B33F8022BCA602363E38E013B9BB234
:1050EC00E3868A6812F001020CD0E38F9BB24BB1BD
:1050FC001546C968A36B23F8021BA363E38F013B1E
:10510C009BB2E387FDF74EFDC01B4045C6D3B8F1FB
:10511C00FF3FC3D00320012384F85130002384F8CF
:10512C00503003B0BDE8F0830AB1012E08D12A78C3
:10513C001A73236B01332363E38E013B9BB2E3862B
:10514C000125E38E9BB21BB9E38F9BB2002BABD036
:10515C00226893689B070ED5E38E9BB25BB155B169
:10516C000025236B1B781373236B01332363E38EAE
:10517C00013B9BB2E3862268916811F001010DD0CE
:10518C00E38F9BB253B10D46D268A36B1A70A36B1D
:10519C000133A363E38F013B9BB2E387FDF702FD71
:1051AC00C01B4045CDD3B8F1FF3FCAD0B2E7A368CE
:1051BC00002BB0D123680190DA6801929B680193AF
:1051CC00019BA8E70220A6E70220AAE770477047D8
:1051DC00036810B51A69044691070ED5DA68920770
:1051EC000BD56FF002021A61012202779B699B07B3
:1051FC0077D001F0B9FC0023237723681A69500794
:10520C0010D5DA6851070DD56FF004021A6102222D
:10521C0022779B69204613F4407F68D001F0A4FCF0
:10522C000023237723681A6912070FD5DA68100751
:10523C000CD56FF008021A6104222277DB69204634
:10524C0099075AD001F090FC0023237723681A6940
:10525C00D20610D5DA68D0060DD56FF010021A619F
:10526C0008222277DB69204613F4407F4BD001F0F3
:10527C007BFC0023237723681A69D10708D5DA68E9
:10528C00D20705D56FF0010220461A6101F070FCBF
:10529C0023681A69100608D5DA68110605D56FF06F
:1052AC00800220461A6100F088F823681A695206B9
:1052BC0008D5DA68500605D56FF0400220461A6111
:1052CC00FFF785FF23681A69910622D5DA689206E2
:1052DC001FD56FF020022046BDE810401A6100F087
:1052EC006BB801F043FC2046FFF770FF83E701F039
:1052FC003DFC2046FFF76AFF92E701F037FC2046A1
:10530C00FFF764FFA0E701F031FC2046FFF75EFFDA
:10531C00AFE710BD1A4A036890420AD0B0F1804F33
:10532C0007D0A2F59432904203D002F580629042ED
:10533C0015D14A6823F070031343114A90420AD0E6
:10534C00B0F1804F07D0A2F59432904203D002F511
:10535C008062904203D1CA6823F4407313434A69B4
:10536C0023F08003134303608B68C3620B68836272
:10537C00034B984204BF0B690363012343617047DD
:10538C00002C014010B50446A0B190F83D3003F05C
:10539C00FF021BB980F83C2001F0C6F802232068FC
:1053AC0084F83D30211DFFF7B5FF0123002084F860
:1053BC003D3010BD0120FCE7704770470368DA6888
:1053CC0022F49072DA605A6922F001025A612023A9
:1053DC0080F83A30704790F83930202B18D1A9B1A9
:1053EC00A2B190F83830012B12D0C28400238284F1
:1053FC00212201620168C36380F8383080F83920BB
:10540C00CA68184642F08002CA6070470120704793
:10541C000220704790F83A30202B20D1E9B1E2B14C
:10542C0090F83830012B1AD0C285828500232222B5
:10543C00C36380F83A20026880F838308162D16802
:10544C00184641F48071D160516941F001015161FC
:10545C00D16841F02001D1607047012070470220D3
:10546C00704710B590F83A30222B33D1816804691B
:10547C00B1F5805F836A026823D15268ECB9C2F33C
:10548C00080223F8022B8362C48D013CA4B2C485AC
:10549C008CB90368DA6822F02002DA60DA6822F448
:1054AC008072DA605A6922F001025A61202380F876
:1054BC003A3001F073F800200DE0D2B223F8012B42
:1054CC00E1E7591C526881620CB91A70DCE702F0F2
:1054DC007F02FAE7022010BD036870B51A68044613
:1054EC001607D9685D6907D1960659D58D0657D52B
:1054FC00BDE87040FFF7B5BF05F0010001F49075F1
:10550C0005434DD0D60705D5CD0542BFE36B43F01F
:10551C000103E363530704D518B1E36B43F00203B3
:10552C00E363960704D518B1E36B43F00403E3631C
:10553C00150704D518B1E36B43F00803E363E36B81
:10554C004BB3900604D5890602D52046FFF789FF98
:10555C00236820465B69E56B03F0400305F0080502
:10556C001D4319D0FFF72AFF23685A6952060FD53D
:10557C005A69606B22F040025A6148B1254B436373
:10558C00FDF794FB38B1606BBDE87040436B184776
:10559C00204601F019F870BD01F016F8E563FAE742
:1055AC00160628D50D0626D594F83920212AF2D1D5
:1055BC00A168226AB1F5805F18D11188C1F3080186
:1055CC005960216981B902322262E28C013A92B2AD
:1055DC00E284002ADFD1DA6822F08002DA60DA682D
:1055EC0042F04002DA60D6E70132EDE7511C21624D
:1055FC0012785A60E9E75006CDD54A06CBD5DA6861
:10560C00204622F04002DA60202384F8393000F082
:10561C00C8FFC0E72556000808B50023406AC385BB
:10562C00C38400F0D1FF08BD90F8392090F83A00FF
:10563C001043704784B001A880E80E0004B000202D
:10564C007047B0F840309BB243F43F43A0F8403071
:10565C0000207047B0F8403023F474535B045B0CAB
:10566C00A0F84030002070470020704784B010B57F
:10567C00044603A880E80E0000200123A4F8403063
:10568C00A4F84000A4F84400A4F85000B4F840304A
:10569C009BB243F43F43A4F84030BDE8104004B043
:1056AC007047000070B5CB780A78032B0FD8DFE871
:1056BC0003F00266525B30F8223023F4EC4323F003
:1056CC0070031B041B0C43F4007320F8223040F6CB
:1056DC000F720C7830F824301340234343F400430A
:1056EC0043F0800320F824308C7A0D7800F5806329
:1056FC00002C40F092808C884E786408012E4FEA82
:10570C0044044FEAC50545D1B0F85060B6B23544F3
:10571C0043F815400C7830F824305D0608D530F885
:10572C0024301A4042F4004242F0C00220F82420F7
:10573C000A7830F8223023F4E04323F040031B04B2
:10574C001B0C83F0200343F4004343F0800320F848
:10575C002230002070BD30F8223023F4EC4323F0CB
:10576C0070031B041B0CB0E730F8223023F4EC431D
:10577C0023F070031B041B0C43F4C063A5E730F843
:10578C00223023F4EC4323F070031B041B0C43F472
:10579C0080639AE7B0F8502092B22A44043243F85E
:1057AC001240B0F850400D690A78A4B206343E2D70
:1057BC0004EBC20429D9C5F34F16EA0604BF06F15F
:1057CC00FF3296B2894A42EA862292B243F81420FA
:1057DC000A7830F822305B040BD530F8223023F0F5
:1057EC00F0031B051B0D43F4404343F0800320F8EA
:1057FC0022300A7830F8223023F4804323F07003EF
:10580C001B041B0C83F400539DE7C5F34F02ED07FB
:10581C0044BF013292B29202D7E730F8254024F40B
:10582C00F8742405240D44F4014444F0800420F859
:10583C002540B0F850400D78A4B204EBC504CD88D7
:10584C006D086D0043F81450B0F850400D78A4B2B8
:10585C00043404EBC5040D896D086D0043F8145035
:10586C004C780D78012C3AD130F825305E0408D5EF
:10587C0030F82530134043F4404343F0800320F8C4
:10588C0025300A7830F822305C060BD530F82230FF
:10589C0023F0F0031B051B0D43F4004343F0C0033E
:1058AC0020F8223048F280020C7830F8243023F4AF
:1058BC00E04323F040031B041B0C83F03003134321
:1058CC0020F82430097830F8213023F4804323F079
:1058DC0070031B041B0C134320F8213039E7ACB9BF
:1058EC00B0F85040A4B2023404EBC5040D693E2D4F
:1058FC0060D9C5F34F16EA0604BF06F1FF3296B223
:10590C003A4A42EA862292B243F814204C780A783A
:10591C00002C5FD1B0F850400D69A4B206343E2D76
:10592C0004EBC2044ED9C5F34F16EA0604BF06F1C8
:10593C00FF3296B22D4A42EA862292B243F81420E4
:10594C000A7830F822305C040BD530F8223023F082
:10595C00F0031B051B0D43F4404343F0800320F878
:10596C0022300A7830F822305B060BD530F8223022
:10597C0023F0F0031B051B0D43F4004343F0C0035D
:10598C0020F8223048F280020C7830F8243023F4CE
:10599C00804323F070031B041B0C83F4405313430C
:1059AC0020F82430097830F8213023F4E04323F038
:1059BC0040038EE7C5F34F02ED0744BF013292B2AC
:1059CC009202A0E7C5F34F02ED0744BF013292B239
:1059DC009202B2E7012CB3D1B0F850400D69A4B2D9
:1059EC00023404EBC20443F81450A9E70080FFFF13
:1059FC0010B58C7A4A780B78C4BB012A30F8232076
:105A0C001ED152060BD530F8232022F0F0021205DD
:105A1C00120D42F4004242F0C00220F823200A7812
:105A2C0030F8223023F4E04323F040031B041B0C1A
:105A3C0043F4004343F0800320F82230002010BDD3
:105A4C0054040BD530F8232022F0F0021205120D6D
:105A5C0042F4404242F0800220F823200A7830F8C9
:105A6C00223023F4804323F07003DFE7012A30F85F
:105A7C00232046D152040BD530F8232022F0F0021B
:105A8C001205120D42F4404242F0800220F823200D
:105A9C000A7830F822305C060BD530F8223023F02F
:105AAC00F0031B051B0D43F4004343F0C00320F827
:105ABC0022300A7830F8223023F0F0031B051B0D3E
:105ACC0043F4404343F0800320F8223048F2800234
